{
	"Fund Me/FundMe.sol": {
		"FundMe": {
			"abi": [
				{
					"inputs": [],
					"stateMutability": "nonpayable",
					"type": "constructor"
				},
				{
					"inputs": [
						{
							"internalType": "address",
							"name": "",
							"type": "address"
						}
					],
					"name": "addressToAmountFunded",
					"outputs": [
						{
							"internalType": "uint256",
							"name": "",
							"type": "uint256"
						}
					],
					"stateMutability": "view",
					"type": "function"
				},
				{
					"inputs": [],
					"name": "fund",
					"outputs": [],
					"stateMutability": "payable",
					"type": "function"
				},
				{
					"inputs": [
						{
							"internalType": "uint256",
							"name": "",
							"type": "uint256"
						}
					],
					"name": "funders",
					"outputs": [
						{
							"internalType": "address",
							"name": "",
							"type": "address"
						}
					],
					"stateMutability": "view",
					"type": "function"
				},
				{
					"inputs": [],
					"name": "minimumUsd",
					"outputs": [
						{
							"internalType": "uint256",
							"name": "",
							"type": "uint256"
						}
					],
					"stateMutability": "view",
					"type": "function"
				},
				{
					"inputs": [],
					"name": "owner",
					"outputs": [
						{
							"internalType": "address",
							"name": "",
							"type": "address"
						}
					],
					"stateMutability": "view",
					"type": "function"
				},
				{
					"inputs": [],
					"name": "withdraw",
					"outputs": [],
					"stateMutability": "nonpayable",
					"type": "function"
				}
			],
			"devdoc": {
				"kind": "dev",
				"methods": {},
				"version": 1
			},
			"evm": {
				"assembly": "    /* \"Fund Me/FundMe.sol\":131:1413  contract FundMe {... */\n  mstore(0x40, 0x80)\n    /* \"Fund Me/FundMe.sol\":220:229  50 * 1e18 */\n  0x02b5e3af16b1880000\n    /* \"Fund Me/FundMe.sol\":192:229  uint256 public minimumUsd = 50 * 1e18 */\n  0x00\n  sstore\n    /* \"Fund Me/FundMe.sol\":356:404  constructor(){... */\n  callvalue\n  dup1\n  iszero\n  tag_1\n  jumpi\n  revert(0x00, 0x00)\ntag_1:\n  pop\n    /* \"Fund Me/FundMe.sol\":387:397  msg.sender */\n  caller\n    /* \"Fund Me/FundMe.sol\":379:384  owner */\n  0x03\n  0x00\n    /* \"Fund Me/FundMe.sol\":379:397  owner = msg.sender */\n  0x0100\n  exp\n  dup2\n  sload\n  dup2\n  0xffffffffffffffffffffffffffffffffffffffff\n  mul\n  not\n  and\n  swap1\n  dup4\n  0xffffffffffffffffffffffffffffffffffffffff\n  and\n  mul\n  or\n  swap1\n  sstore\n  pop\n    /* \"Fund Me/FundMe.sol\":131:1413  contract FundMe {... */\n  dataSize(sub_0)\n  dup1\n  dataOffset(sub_0)\n  0x00\n  codecopy\n  0x00\n  return\nstop\n\nsub_0: assembly {\n        /* \"Fund Me/FundMe.sol\":131:1413  contract FundMe {... */\n      mstore(0x40, 0x80)\n      jumpi(tag_1, lt(calldatasize, 0x04))\n      shr(0xe0, calldataload(0x00))\n      dup1\n      0x098de820\n      eq\n      tag_2\n      jumpi\n      dup1\n      0x3ccfd60b\n      eq\n      tag_3\n      jumpi\n      dup1\n      0x3e47d6f3\n      eq\n      tag_4\n      jumpi\n      dup1\n      0x8da5cb5b\n      eq\n      tag_5\n      jumpi\n      dup1\n      0xb60d4288\n      eq\n      tag_6\n      jumpi\n      dup1\n      0xdc0d3dff\n      eq\n      tag_7\n      jumpi\n    tag_1:\n      revert(0x00, 0x00)\n        /* \"Fund Me/FundMe.sol\":192:229  uint256 public minimumUsd = 50 * 1e18 */\n    tag_2:\n      callvalue\n      dup1\n      iszero\n      tag_8\n      jumpi\n      revert(0x00, 0x00)\n    tag_8:\n      pop\n      tag_9\n      tag_10\n      jump\t// in\n    tag_9:\n      mload(0x40)\n      tag_11\n      swap2\n      swap1\n      tag_12\n      jump\t// in\n    tag_11:\n      mload(0x40)\n      dup1\n      swap2\n      sub\n      swap1\n      return\n        /* \"Fund Me/FundMe.sol\":636:1305  function withdraw() public onlyOwner{... */\n    tag_3:\n      callvalue\n      dup1\n      iszero\n      tag_13\n      jumpi\n      revert(0x00, 0x00)\n    tag_13:\n      pop\n      tag_14\n      tag_15\n      jump\t// in\n    tag_14:\n      stop\n        /* \"Fund Me/FundMe.sol\":266:322  mapping(address => uint256) public addressToAmountFunded */\n    tag_4:\n      callvalue\n      dup1\n      iszero\n      tag_16\n      jumpi\n      revert(0x00, 0x00)\n    tag_16:\n      pop\n      tag_17\n      0x04\n      dup1\n      calldatasize\n      sub\n      dup2\n      add\n      swap1\n      tag_18\n      swap2\n      swap1\n      tag_19\n      jump\t// in\n    tag_18:\n      tag_20\n      jump\t// in\n    tag_17:\n      mload(0x40)\n      tag_21\n      swap2\n      swap1\n      tag_12\n      jump\t// in\n    tag_21:\n      mload(0x40)\n      dup1\n      swap2\n      sub\n      swap1\n      return\n        /* \"Fund Me/FundMe.sol\":329:349  address public owner */\n    tag_5:\n      callvalue\n      dup1\n      iszero\n      tag_22\n      jumpi\n      revert(0x00, 0x00)\n    tag_22:\n      pop\n      tag_23\n      tag_24\n      jump\t// in\n    tag_23:\n      mload(0x40)\n      tag_25\n      swap2\n      swap1\n      tag_26\n      jump\t// in\n    tag_25:\n      mload(0x40)\n      dup1\n      swap2\n      sub\n      swap1\n      return\n        /* \"Fund Me/FundMe.sol\":410:630  function fund() public payable{... */\n    tag_6:\n      tag_27\n      tag_28\n      jump\t// in\n    tag_27:\n      stop\n        /* \"Fund Me/FundMe.sol\":236:260  address[] public funders */\n    tag_7:\n      callvalue\n      dup1\n      iszero\n      tag_29\n      jumpi\n      revert(0x00, 0x00)\n    tag_29:\n      pop\n      tag_30\n      0x04\n      dup1\n      calldatasize\n      sub\n      dup2\n      add\n      swap1\n      tag_31\n      swap2\n      swap1\n      tag_32\n      jump\t// in\n    tag_31:\n      tag_33\n      jump\t// in\n    tag_30:\n      mload(0x40)\n      tag_34\n      swap2\n      swap1\n      tag_26\n      jump\t// in\n    tag_34:\n      mload(0x40)\n      dup1\n      swap2\n      sub\n      swap1\n      return\n        /* \"Fund Me/FundMe.sol\":192:229  uint256 public minimumUsd = 50 * 1e18 */\n    tag_10:\n      sload(0x00)\n      dup2\n      jump\t// out\n        /* \"Fund Me/FundMe.sol\":636:1305  function withdraw() public onlyOwner{... */\n    tag_15:\n        /* \"Fund Me/FundMe.sol\":1362:1367  owner */\n      0x03\n      0x00\n      swap1\n      sload\n      swap1\n      0x0100\n      exp\n      swap1\n      div\n      0xffffffffffffffffffffffffffffffffffffffff\n      and\n        /* \"Fund Me/FundMe.sol\":1348:1367  msg.sender == owner */\n      0xffffffffffffffffffffffffffffffffffffffff\n      and\n        /* \"Fund Me/FundMe.sol\":1348:1358  msg.sender */\n      caller\n        /* \"Fund Me/FundMe.sol\":1348:1367  msg.sender == owner */\n      0xffffffffffffffffffffffffffffffffffffffff\n      and\n      eq\n        /* \"Fund Me/FundMe.sol\":1340:1393  require(msg.sender == owner, \"Sender is not owner!!\") */\n      tag_36\n      jumpi\n      mload(0x40)\n      0x08c379a000000000000000000000000000000000000000000000000000000000\n      dup2\n      mstore\n      0x04\n      add\n      tag_37\n      swap1\n      tag_38\n      jump\t// in\n    tag_37:\n      mload(0x40)\n      dup1\n      swap2\n      sub\n      swap1\n      revert\n    tag_36:\n        /* \"Fund Me/FundMe.sol\":686:695  uint256 i */\n      0x00\n        /* \"Fund Me/FundMe.sol\":698:699  0 */\n      0x00\n        /* \"Fund Me/FundMe.sol\":686:699  uint256 i = 0 */\n      swap1\n      pop\n        /* \"Fund Me/FundMe.sol\":682:824  for(uint256 i = 0; i < funders.length; i++){... */\n    tag_40:\n        /* \"Fund Me/FundMe.sol\":705:712  funders */\n      0x01\n        /* \"Fund Me/FundMe.sol\":705:719  funders.length */\n      dup1\n      sload\n      swap1\n      pop\n        /* \"Fund Me/FundMe.sol\":701:702  i */\n      dup2\n        /* \"Fund Me/FundMe.sol\":701:719  i < funders.length */\n      lt\n        /* \"Fund Me/FundMe.sol\":682:824  for(uint256 i = 0; i < funders.length; i++){... */\n      iszero\n      tag_41\n      jumpi\n        /* \"Fund Me/FundMe.sol\":739:753  address funder */\n      0x00\n        /* \"Fund Me/FundMe.sol\":756:763  funders */\n      0x01\n        /* \"Fund Me/FundMe.sol\":764:765  i */\n      dup3\n        /* \"Fund Me/FundMe.sol\":756:766  funders[i] */\n      dup2\n      sload\n      dup2\n      lt\n      tag_43\n      jumpi\n      tag_44\n      tag_45\n      jump\t// in\n    tag_44:\n    tag_43:\n      swap1\n      0x00\n      mstore\n      keccak256(0x00, 0x20)\n      add\n      0x00\n      swap1\n      sload\n      swap1\n      0x0100\n      exp\n      swap1\n      div\n      0xffffffffffffffffffffffffffffffffffffffff\n      and\n        /* \"Fund Me/FundMe.sol\":739:766  address funder = funders[i] */\n      swap1\n      pop\n        /* \"Fund Me/FundMe.sol\":812:813  0 */\n      0x00\n        /* \"Fund Me/FundMe.sol\":780:801  addressToAmountFunded */\n      0x02\n        /* \"Fund Me/FundMe.sol\":780:809  addressToAmountFunded[funder] */\n      0x00\n        /* \"Fund Me/FundMe.sol\":802:808  funder */\n      dup4\n        /* \"Fund Me/FundMe.sol\":780:809  addressToAmountFunded[funder] */\n      0xffffffffffffffffffffffffffffffffffffffff\n      and\n      0xffffffffffffffffffffffffffffffffffffffff\n      and\n      dup2\n      mstore\n      0x20\n      add\n      swap1\n      dup2\n      mstore\n      0x20\n      add\n      0x00\n      keccak256\n        /* \"Fund Me/FundMe.sol\":780:813  addressToAmountFunded[funder] = 0 */\n      dup2\n      swap1\n      sstore\n      pop\n        /* \"Fund Me/FundMe.sol\":725:824  {... */\n      pop\n        /* \"Fund Me/FundMe.sol\":721:724  i++ */\n      dup1\n      dup1\n      0x01\n      add\n      swap2\n      pop\n      pop\n        /* \"Fund Me/FundMe.sol\":682:824  for(uint256 i = 0; i < funders.length; i++){... */\n      jump(tag_40)\n    tag_41:\n      pop\n        /* \"Fund Me/FundMe.sol\":885:886  0 */\n      0x00\n        /* \"Fund Me/FundMe.sol\":871:887  new address[](0) */\n      0xffffffffffffffff\n      dup2\n      gt\n      iszero\n      tag_47\n      jumpi\n      tag_48\n      tag_49\n      jump\t// in\n    tag_48:\n    tag_47:\n      mload(0x40)\n      swap1\n      dup1\n      dup3\n      mstore\n      dup1\n      0x20\n      mul\n      0x20\n      add\n      dup3\n      add\n      0x40\n      mstore\n      dup1\n      iszero\n      tag_50\n      jumpi\n      dup2\n      0x20\n      add\n      0x20\n      dup3\n      mul\n      dup1\n      calldatasize\n      dup4\n      calldatacopy\n      dup1\n      dup3\n      add\n      swap2\n      pop\n      pop\n      swap1\n      pop\n    tag_50:\n      pop\n        /* \"Fund Me/FundMe.sol\":861:868  funders */\n      0x01\n        /* \"Fund Me/FundMe.sol\":861:887  funders = new address[](0) */\n      swap1\n      dup1\n      mload\n      swap1\n      0x20\n      add\n      swap1\n      tag_51\n      swap3\n      swap2\n      swap1\n      tag_52\n      jump\t// in\n    tag_51:\n      pop\n        /* \"Fund Me/FundMe.sol\":1170:1186  bool callSuccess */\n      0x00\n        /* \"Fund Me/FundMe.sol\":1200:1210  msg.sender */\n      caller\n        /* \"Fund Me/FundMe.sol\":1192:1216  payable(msg.sender).call */\n      0xffffffffffffffffffffffffffffffffffffffff\n      and\n        /* \"Fund Me/FundMe.sol\":1224:1245  address(this).balance */\n      selfbalance\n        /* \"Fund Me/FundMe.sol\":1192:1250  payable(msg.sender).call{value: address(this).balance}(\"\") */\n      mload(0x40)\n      tag_53\n      swap1\n      tag_54\n      jump\t// in\n    tag_53:\n      0x00\n      mload(0x40)\n      dup1\n      dup4\n      sub\n      dup2\n      dup6\n      dup8\n      gas\n      call\n      swap3\n      pop\n      pop\n      pop\n      returndatasize\n      dup1\n      0x00\n      dup2\n      eq\n      tag_57\n      jumpi\n      mload(0x40)\n      swap2\n      pop\n      and(add(returndatasize, 0x3f), not(0x1f))\n      dup3\n      add\n      0x40\n      mstore\n      returndatasize\n      dup3\n      mstore\n      returndatasize\n      0x00\n      0x20\n      dup5\n      add\n      returndatacopy\n      jump(tag_56)\n    tag_57:\n      0x60\n      swap2\n      pop\n    tag_56:\n      pop\n        /* \"Fund Me/FundMe.sol\":1169:1250  (bool callSuccess, ) = payable(msg.sender).call{value: address(this).balance}(\"\") */\n      pop\n      swap1\n      pop\n        /* \"Fund Me/FundMe.sol\":1268:1279  callSuccess */\n      dup1\n        /* \"Fund Me/FundMe.sol\":1260:1298  require(callSuccess, \"Call failed :(\") */\n      tag_58\n      jumpi\n      mload(0x40)\n      0x08c379a000000000000000000000000000000000000000000000000000000000\n      dup2\n      mstore\n      0x04\n      add\n      tag_59\n      swap1\n      tag_60\n      jump\t// in\n    tag_59:\n      mload(0x40)\n      dup1\n      swap2\n      sub\n      swap1\n      revert\n    tag_58:\n        /* \"Fund Me/FundMe.sol\":672:1305  {... */\n      pop\n        /* \"Fund Me/FundMe.sol\":636:1305  function withdraw() public onlyOwner{... */\n      jump\t// out\n        /* \"Fund Me/FundMe.sol\":266:322  mapping(address => uint256) public addressToAmountFunded */\n    tag_20:\n      mstore(0x20, 0x02)\n      dup1\n      0x00\n      mstore\n      keccak256(0x00, 0x40)\n      0x00\n      swap2\n      pop\n      swap1\n      pop\n      sload\n      dup2\n      jump\t// out\n        /* \"Fund Me/FundMe.sol\":329:349  address public owner */\n    tag_24:\n      0x03\n      0x00\n      swap1\n      sload\n      swap1\n      0x0100\n      exp\n      swap1\n      div\n      0xffffffffffffffffffffffffffffffffffffffff\n      and\n      dup2\n      jump\t// out\n        /* \"Fund Me/FundMe.sol\":410:630  function fund() public payable{... */\n    tag_28:\n        /* \"Fund Me/FundMe.sol\":491:501  minimumUsd */\n      sload(0x00)\n        /* \"Fund Me/FundMe.sol\":458:487  msg.value.getConversionRate() */\n      tag_62\n        /* \"Fund Me/FundMe.sol\":458:467  msg.value */\n      callvalue\n        /* \"Fund Me/FundMe.sol\":458:485  msg.value.getConversionRate */\n      tag_63\n        /* \"Fund Me/FundMe.sol\":458:487  msg.value.getConversionRate() */\n      jump\t// in\n    tag_62:\n        /* \"Fund Me/FundMe.sol\":458:501  msg.value.getConversionRate() >= minimumUsd */\n      lt\n      iszero\n        /* \"Fund Me/FundMe.sol\":450:533  require(msg.value.getConversionRate() >= minimumUsd, \"Didn't send enough ether :(\") */\n      tag_64\n      jumpi\n      mload(0x40)\n      0x08c379a000000000000000000000000000000000000000000000000000000000\n      dup2\n      mstore\n      0x04\n      add\n      tag_65\n      swap1\n      tag_66\n      jump\t// in\n    tag_65:\n      mload(0x40)\n      dup1\n      swap2\n      sub\n      swap1\n      revert\n    tag_64:\n        /* \"Fund Me/FundMe.sol\":544:551  funders */\n      0x01\n        /* \"Fund Me/FundMe.sol\":557:567  msg.sender */\n      caller\n        /* \"Fund Me/FundMe.sol\":544:568  funders.push(msg.sender) */\n      swap1\n      dup1\n      0x01\n      dup2\n      sload\n      add\n      dup1\n      dup3\n      sstore\n      dup1\n      swap2\n      pop\n      pop\n      0x01\n      swap1\n      sub\n      swap1\n      0x00\n      mstore\n      keccak256(0x00, 0x20)\n      add\n      0x00\n      swap1\n      swap2\n      swap1\n      swap2\n      swap1\n      swap2\n      0x0100\n      exp\n      dup2\n      sload\n      dup2\n      0xffffffffffffffffffffffffffffffffffffffff\n      mul\n      not\n      and\n      swap1\n      dup4\n      0xffffffffffffffffffffffffffffffffffffffff\n      and\n      mul\n      or\n      swap1\n      sstore\n      pop\n        /* \"Fund Me/FundMe.sol\":614:623  msg.value */\n      callvalue\n        /* \"Fund Me/FundMe.sol\":578:599  addressToAmountFunded */\n      0x02\n        /* \"Fund Me/FundMe.sol\":578:611  addressToAmountFunded[msg.sender] */\n      0x00\n        /* \"Fund Me/FundMe.sol\":600:610  msg.sender */\n      caller\n        /* \"Fund Me/FundMe.sol\":578:611  addressToAmountFunded[msg.sender] */\n      0xffffffffffffffffffffffffffffffffffffffff\n      and\n      0xffffffffffffffffffffffffffffffffffffffff\n      and\n      dup2\n      mstore\n      0x20\n      add\n      swap1\n      dup2\n      mstore\n      0x20\n      add\n      0x00\n      keccak256\n        /* \"Fund Me/FundMe.sol\":578:623  addressToAmountFunded[msg.sender] = msg.value */\n      dup2\n      swap1\n      sstore\n      pop\n        /* \"Fund Me/FundMe.sol\":410:630  function fund() public payable{... */\n      jump\t// out\n        /* \"Fund Me/FundMe.sol\":236:260  address[] public funders */\n    tag_33:\n      0x01\n      dup2\n      dup2\n      sload\n      dup2\n      lt\n      tag_68\n      jumpi\n      0x00\n      dup1\n      revert\n    tag_68:\n      swap1\n      0x00\n      mstore\n      keccak256(0x00, 0x20)\n      add\n      0x00\n      swap2\n      pop\n      sload\n      swap1\n      0x0100\n      exp\n      swap1\n      div\n      0xffffffffffffffffffffffffffffffffffffffff\n      and\n      dup2\n      jump\t// out\n        /* \"Fund Me/PriceConverter.sol\":441:659  function getConversionRate(uint256 ethAmount) internal view returns (uint256){... */\n    tag_63:\n        /* \"Fund Me/PriceConverter.sol\":510:517  uint256 */\n      0x00\n        /* \"Fund Me/PriceConverter.sol\":528:544  uint256 ethPrice */\n      0x00\n        /* \"Fund Me/PriceConverter.sol\":547:557  getPrice() */\n      tag_71\n        /* \"Fund Me/PriceConverter.sol\":547:555  getPrice */\n      tag_72\n        /* \"Fund Me/PriceConverter.sol\":547:557  getPrice() */\n      jump\t// in\n    tag_71:\n        /* \"Fund Me/PriceConverter.sol\":528:557  uint256 ethPrice = getPrice() */\n      swap1\n      pop\n        /* \"Fund Me/PriceConverter.sol\":567:589  uint256 ethAmountInUsd */\n      0x00\n        /* \"Fund Me/PriceConverter.sol\":617:621  1e18 */\n      0x0de0b6b3a7640000\n        /* \"Fund Me/PriceConverter.sol\":604:613  ethAmount */\n      dup5\n        /* \"Fund Me/PriceConverter.sol\":593:601  ethPrice */\n      dup4\n        /* \"Fund Me/PriceConverter.sol\":593:613  ethPrice * ethAmount */\n      tag_73\n      swap2\n      swap1\n      tag_74\n      jump\t// in\n    tag_73:\n        /* \"Fund Me/PriceConverter.sol\":592:621  (ethPrice * ethAmount) / 1e18 */\n      tag_75\n      swap2\n      swap1\n      tag_76\n      jump\t// in\n    tag_75:\n        /* \"Fund Me/PriceConverter.sol\":567:621  uint256 ethAmountInUsd = (ethPrice * ethAmount) / 1e18 */\n      swap1\n      pop\n        /* \"Fund Me/PriceConverter.sol\":638:652  ethAmountInUsd */\n      dup1\n        /* \"Fund Me/PriceConverter.sol\":631:652  return ethAmountInUsd */\n      swap3\n      pop\n      pop\n      pop\n        /* \"Fund Me/PriceConverter.sol\":441:659  function getConversionRate(uint256 ethAmount) internal view returns (uint256){... */\n      swap2\n      swap1\n      pop\n      jump\t// out\n        /* \"Fund Me/PriceConverter.sol\":165:435  function getPrice() internal view returns (uint256) {... */\n    tag_72:\n        /* \"Fund Me/PriceConverter.sol\":208:215  uint256 */\n      0x00\n        /* \"Fund Me/PriceConverter.sol\":227:258  AggregatorV3Interface priceFeed */\n      0x00\n        /* \"Fund Me/PriceConverter.sol\":283:325  0x694AA1769357215DE4FAC081bf1f309aDC325306 */\n      0x694aa1769357215de4fac081bf1f309adc325306\n        /* \"Fund Me/PriceConverter.sol\":227:326  AggregatorV3Interface priceFeed = AggregatorV3Interface(0x694AA1769357215DE4FAC081bf1f309aDC325306) */\n      swap1\n      pop\n        /* \"Fund Me/PriceConverter.sol\":339:352  int256 answer */\n      0x00\n        /* \"Fund Me/PriceConverter.sol\":362:371  priceFeed */\n      dup2\n        /* \"Fund Me/PriceConverter.sol\":362:387  priceFeed.latestRoundData */\n      0xffffffffffffffffffffffffffffffffffffffff\n      and\n      0xfeaf968c\n        /* \"Fund Me/PriceConverter.sol\":362:389  priceFeed.latestRoundData() */\n      mload(0x40)\n      dup2\n      0xffffffff\n      and\n      0xe0\n      shl\n      dup2\n      mstore\n      0x04\n      add\n      0xa0\n      mload(0x40)\n      dup1\n      dup4\n      sub\n      dup2\n      dup7\n      gas\n      staticcall\n      iszero\n      dup1\n      iszero\n      tag_79\n      jumpi\n      returndatacopy(0x00, 0x00, returndatasize)\n      revert(0x00, returndatasize)\n    tag_79:\n      pop\n      pop\n      pop\n      pop\n      mload(0x40)\n      returndatasize\n      not(0x1f)\n      0x1f\n      dup3\n      add\n      and\n      dup3\n      add\n      dup1\n      0x40\n      mstore\n      pop\n      dup2\n      add\n      swap1\n      tag_80\n      swap2\n      swap1\n      tag_81\n      jump\t// in\n    tag_80:\n        /* \"Fund Me/PriceConverter.sol\":336:389  (, int256 answer, , , ) = priceFeed.latestRoundData() */\n      pop\n      pop\n      pop\n      swap2\n      pop\n      pop\n        /* \"Fund Me/PriceConverter.sol\":423:427  1e10 */\n      0x02540be400\n        /* \"Fund Me/PriceConverter.sol\":414:420  answer */\n      dup2\n        /* \"Fund Me/PriceConverter.sol\":414:427  answer * 1e10 */\n      tag_82\n      swap2\n      swap1\n      tag_83\n      jump\t// in\n    tag_82:\n        /* \"Fund Me/PriceConverter.sol\":399:428  return uint256(answer * 1e10) */\n      swap3\n      pop\n      pop\n      pop\n        /* \"Fund Me/PriceConverter.sol\":165:435  function getPrice() internal view returns (uint256) {... */\n      swap1\n      jump\t// out\n    tag_52:\n      dup3\n      dup1\n      sload\n      dup3\n      dup3\n      sstore\n      swap1\n      0x00\n      mstore\n      keccak256(0x00, 0x20)\n      swap1\n      dup2\n      add\n      swap3\n      dup3\n      iszero\n      tag_84\n      jumpi\n      swap2\n      0x20\n      mul\n      dup3\n      add\n    tag_85:\n      dup3\n      dup2\n      gt\n      iszero\n      tag_86\n      jumpi\n      dup3\n      mload\n      dup3\n      exp(0x0100, 0x00)\n      dup2\n      sload\n      dup2\n      0xffffffffffffffffffffffffffffffffffffffff\n      mul\n      not\n      and\n      swap1\n      dup4\n      0xffffffffffffffffffffffffffffffffffffffff\n      and\n      mul\n      or\n      swap1\n      sstore\n      pop\n      swap2\n      0x20\n      add\n      swap2\n      swap1\n      0x01\n      add\n      swap1\n      jump(tag_85)\n    tag_86:\n    tag_84:\n      pop\n      swap1\n      pop\n      tag_87\n      swap2\n      swap1\n      tag_88\n      jump\t// in\n    tag_87:\n      pop\n      swap1\n      jump\t// out\n    tag_88:\n    tag_89:\n      dup1\n      dup3\n      gt\n      iszero\n      tag_90\n      jumpi\n      0x00\n      dup2\n      0x00\n      swap1\n      sstore\n      pop\n      0x01\n      add\n      jump(tag_89)\n    tag_90:\n      pop\n      swap1\n      jump\t// out\n        /* \"#utility.yul\":7:84   */\n    tag_91:\n        /* \"#utility.yul\":44:51   */\n      0x00\n        /* \"#utility.yul\":73:78   */\n      dup2\n        /* \"#utility.yul\":62:78   */\n      swap1\n      pop\n        /* \"#utility.yul\":7:84   */\n      swap2\n      swap1\n      pop\n      jump\t// out\n        /* \"#utility.yul\":90:208   */\n    tag_92:\n        /* \"#utility.yul\":177:201   */\n      tag_125\n        /* \"#utility.yul\":195:200   */\n      dup2\n        /* \"#utility.yul\":177:201   */\n      tag_91\n      jump\t// in\n    tag_125:\n        /* \"#utility.yul\":172:175   */\n      dup3\n        /* \"#utility.yul\":165:202   */\n      mstore\n        /* \"#utility.yul\":90:208   */\n      pop\n      pop\n      jump\t// out\n        /* \"#utility.yul\":214:436   */\n    tag_12:\n        /* \"#utility.yul\":307:311   */\n      0x00\n        /* \"#utility.yul\":345:347   */\n      0x20\n        /* \"#utility.yul\":334:343   */\n      dup3\n        /* \"#utility.yul\":330:348   */\n      add\n        /* \"#utility.yul\":322:348   */\n      swap1\n      pop\n        /* \"#utility.yul\":358:429   */\n      tag_127\n        /* \"#utility.yul\":426:427   */\n      0x00\n        /* \"#utility.yul\":415:424   */\n      dup4\n        /* \"#utility.yul\":411:428   */\n      add\n        /* \"#utility.yul\":402:408   */\n      dup5\n        /* \"#utility.yul\":358:429   */\n      tag_92\n      jump\t// in\n    tag_127:\n        /* \"#utility.yul\":214:436   */\n      swap3\n      swap2\n      pop\n      pop\n      jump\t// out\n        /* \"#utility.yul\":523:640   */\n    tag_94:\n        /* \"#utility.yul\":632:633   */\n      0x00\n        /* \"#utility.yul\":629:630   */\n      0x00\n        /* \"#utility.yul\":622:634   */\n      revert\n        /* \"#utility.yul\":769:895   */\n    tag_96:\n        /* \"#utility.yul\":806:813   */\n      0x00\n        /* \"#utility.yul\":846:888   */\n      0xffffffffffffffffffffffffffffffffffffffff\n        /* \"#utility.yul\":839:844   */\n      dup3\n        /* \"#utility.yul\":835:889   */\n      and\n        /* \"#utility.yul\":824:889   */\n      swap1\n      pop\n        /* \"#utility.yul\":769:895   */\n      swap2\n      swap1\n      pop\n      jump\t// out\n        /* \"#utility.yul\":901:997   */\n    tag_97:\n        /* \"#utility.yul\":938:945   */\n      0x00\n        /* \"#utility.yul\":967:991   */\n      tag_133\n        /* \"#utility.yul\":985:990   */\n      dup3\n        /* \"#utility.yul\":967:991   */\n      tag_96\n      jump\t// in\n    tag_133:\n        /* \"#utility.yul\":956:991   */\n      swap1\n      pop\n        /* \"#utility.yul\":901:997   */\n      swap2\n      swap1\n      pop\n      jump\t// out\n        /* \"#utility.yul\":1003:1125   */\n    tag_98:\n        /* \"#utility.yul\":1076:1100   */\n      tag_135\n        /* \"#utility.yul\":1094:1099   */\n      dup2\n        /* \"#utility.yul\":1076:1100   */\n      tag_97\n      jump\t// in\n    tag_135:\n        /* \"#utility.yul\":1069:1074   */\n      dup2\n        /* \"#utility.yul\":1066:1101   */\n      eq\n        /* \"#utility.yul\":1056:1119   */\n      tag_136\n      jumpi\n        /* \"#utility.yul\":1115:1116   */\n      0x00\n        /* \"#utility.yul\":1112:1113   */\n      0x00\n        /* \"#utility.yul\":1105:1117   */\n      revert\n        /* \"#utility.yul\":1056:1119   */\n    tag_136:\n        /* \"#utility.yul\":1003:1125   */\n      pop\n      jump\t// out\n        /* \"#utility.yul\":1131:1270   */\n    tag_99:\n        /* \"#utility.yul\":1177:1182   */\n      0x00\n        /* \"#utility.yul\":1215:1221   */\n      dup2\n        /* \"#utility.yul\":1202:1222   */\n      calldataload\n        /* \"#utility.yul\":1193:1222   */\n      swap1\n      pop\n        /* \"#utility.yul\":1231:1264   */\n      tag_138\n        /* \"#utility.yul\":1258:1263   */\n      dup2\n        /* \"#utility.yul\":1231:1264   */\n      tag_98\n      jump\t// in\n    tag_138:\n        /* \"#utility.yul\":1131:1270   */\n      swap3\n      swap2\n      pop\n      pop\n      jump\t// out\n        /* \"#utility.yul\":1276:1605   */\n    tag_19:\n        /* \"#utility.yul\":1335:1341   */\n      0x00\n        /* \"#utility.yul\":1384:1386   */\n      0x20\n        /* \"#utility.yul\":1372:1381   */\n      dup3\n        /* \"#utility.yul\":1363:1370   */\n      dup5\n        /* \"#utility.yul\":1359:1382   */\n      sub\n        /* \"#utility.yul\":1355:1387   */\n      slt\n        /* \"#utility.yul\":1352:1471   */\n      iszero\n      tag_140\n      jumpi\n        /* \"#utility.yul\":1390:1469   */\n      tag_141\n      tag_94\n      jump\t// in\n    tag_141:\n        /* \"#utility.yul\":1352:1471   */\n    tag_140:\n        /* \"#utility.yul\":1510:1511   */\n      0x00\n        /* \"#utility.yul\":1535:1588   */\n      tag_142\n        /* \"#utility.yul\":1580:1587   */\n      dup5\n        /* \"#utility.yul\":1571:1577   */\n      dup3\n        /* \"#utility.yul\":1560:1569   */\n      dup6\n        /* \"#utility.yul\":1556:1578   */\n      add\n        /* \"#utility.yul\":1535:1588   */\n      tag_99\n      jump\t// in\n    tag_142:\n        /* \"#utility.yul\":1525:1588   */\n      swap2\n      pop\n        /* \"#utility.yul\":1481:1598   */\n      pop\n        /* \"#utility.yul\":1276:1605   */\n      swap3\n      swap2\n      pop\n      pop\n      jump\t// out\n        /* \"#utility.yul\":1611:1729   */\n    tag_100:\n        /* \"#utility.yul\":1698:1722   */\n      tag_144\n        /* \"#utility.yul\":1716:1721   */\n      dup2\n        /* \"#utility.yul\":1698:1722   */\n      tag_97\n      jump\t// in\n    tag_144:\n        /* \"#utility.yul\":1693:1696   */\n      dup3\n        /* \"#utility.yul\":1686:1723   */\n      mstore\n        /* \"#utility.yul\":1611:1729   */\n      pop\n      pop\n      jump\t// out\n        /* \"#utility.yul\":1735:1957   */\n    tag_26:\n        /* \"#utility.yul\":1828:1832   */\n      0x00\n        /* \"#utility.yul\":1866:1868   */\n      0x20\n        /* \"#utility.yul\":1855:1864   */\n      dup3\n        /* \"#utility.yul\":1851:1869   */\n      add\n        /* \"#utility.yul\":1843:1869   */\n      swap1\n      pop\n        /* \"#utility.yul\":1879:1950   */\n      tag_146\n        /* \"#utility.yul\":1947:1948   */\n      0x00\n        /* \"#utility.yul\":1936:1945   */\n      dup4\n        /* \"#utility.yul\":1932:1949   */\n      add\n        /* \"#utility.yul\":1923:1929   */\n      dup5\n        /* \"#utility.yul\":1879:1950   */\n      tag_100\n      jump\t// in\n    tag_146:\n        /* \"#utility.yul\":1735:1957   */\n      swap3\n      swap2\n      pop\n      pop\n      jump\t// out\n        /* \"#utility.yul\":1963:2085   */\n    tag_101:\n        /* \"#utility.yul\":2036:2060   */\n      tag_148\n        /* \"#utility.yul\":2054:2059   */\n      dup2\n        /* \"#utility.yul\":2036:2060   */\n      tag_91\n      jump\t// in\n    tag_148:\n        /* \"#utility.yul\":2029:2034   */\n      dup2\n        /* \"#utility.yul\":2026:2061   */\n      eq\n        /* \"#utility.yul\":2016:2079   */\n      tag_149\n      jumpi\n        /* \"#utility.yul\":2075:2076   */\n      0x00\n        /* \"#utility.yul\":2072:2073   */\n      0x00\n        /* \"#utility.yul\":2065:2077   */\n      revert\n        /* \"#utility.yul\":2016:2079   */\n    tag_149:\n        /* \"#utility.yul\":1963:2085   */\n      pop\n      jump\t// out\n        /* \"#utility.yul\":2091:2230   */\n    tag_102:\n        /* \"#utility.yul\":2137:2142   */\n      0x00\n        /* \"#utility.yul\":2175:2181   */\n      dup2\n        /* \"#utility.yul\":2162:2182   */\n      calldataload\n        /* \"#utility.yul\":2153:2182   */\n      swap1\n      pop\n        /* \"#utility.yul\":2191:2224   */\n      tag_151\n        /* \"#utility.yul\":2218:2223   */\n      dup2\n        /* \"#utility.yul\":2191:2224   */\n      tag_101\n      jump\t// in\n    tag_151:\n        /* \"#utility.yul\":2091:2230   */\n      swap3\n      swap2\n      pop\n      pop\n      jump\t// out\n        /* \"#utility.yul\":2236:2565   */\n    tag_32:\n        /* \"#utility.yul\":2295:2301   */\n      0x00\n        /* \"#utility.yul\":2344:2346   */\n      0x20\n        /* \"#utility.yul\":2332:2341   */\n      dup3\n        /* \"#utility.yul\":2323:2330   */\n      dup5\n        /* \"#utility.yul\":2319:2342   */\n      sub\n        /* \"#utility.yul\":2315:2347   */\n      slt\n        /* \"#utility.yul\":2312:2431   */\n      iszero\n      tag_153\n      jumpi\n        /* \"#utility.yul\":2350:2429   */\n      tag_154\n      tag_94\n      jump\t// in\n    tag_154:\n        /* \"#utility.yul\":2312:2431   */\n    tag_153:\n        /* \"#utility.yul\":2470:2471   */\n      0x00\n        /* \"#utility.yul\":2495:2548   */\n      tag_155\n        /* \"#utility.yul\":2540:2547   */\n      dup5\n        /* \"#utility.yul\":2531:2537   */\n      dup3\n        /* \"#utility.yul\":2520:2529   */\n      dup6\n        /* \"#utility.yul\":2516:2538   */\n      add\n        /* \"#utility.yul\":2495:2548   */\n      tag_102\n      jump\t// in\n    tag_155:\n        /* \"#utility.yul\":2485:2548   */\n      swap2\n      pop\n        /* \"#utility.yul\":2441:2558   */\n      pop\n        /* \"#utility.yul\":2236:2565   */\n      swap3\n      swap2\n      pop\n      pop\n      jump\t// out\n        /* \"#utility.yul\":2571:2740   */\n    tag_103:\n        /* \"#utility.yul\":2655:2666   */\n      0x00\n        /* \"#utility.yul\":2689:2695   */\n      dup3\n        /* \"#utility.yul\":2684:2687   */\n      dup3\n        /* \"#utility.yul\":2677:2696   */\n      mstore\n        /* \"#utility.yul\":2729:2733   */\n      0x20\n        /* \"#utility.yul\":2724:2727   */\n      dup3\n        /* \"#utility.yul\":2720:2734   */\n      add\n        /* \"#utility.yul\":2705:2734   */\n      swap1\n      pop\n        /* \"#utility.yul\":2571:2740   */\n      swap3\n      swap2\n      pop\n      pop\n      jump\t// out\n        /* \"#utility.yul\":2746:2917   */\n    tag_104:\n        /* \"#utility.yul\":2886:2909   */\n      0x53656e646572206973206e6f74206f776e657221210000000000000000000000\n        /* \"#utility.yul\":2882:2883   */\n      0x00\n        /* \"#utility.yul\":2874:2880   */\n      dup3\n        /* \"#utility.yul\":2870:2884   */\n      add\n        /* \"#utility.yul\":2863:2910   */\n      mstore\n        /* \"#utility.yul\":2746:2917   */\n      pop\n      jump\t// out\n        /* \"#utility.yul\":2923:3289   */\n    tag_105:\n        /* \"#utility.yul\":3065:3068   */\n      0x00\n        /* \"#utility.yul\":3086:3153   */\n      tag_159\n        /* \"#utility.yul\":3150:3152   */\n      0x15\n        /* \"#utility.yul\":3145:3148   */\n      dup4\n        /* \"#utility.yul\":3086:3153   */\n      tag_103\n      jump\t// in\n    tag_159:\n        /* \"#utility.yul\":3079:3153   */\n      swap2\n      pop\n        /* \"#utility.yul\":3162:3255   */\n      tag_160\n        /* \"#utility.yul\":3251:3254   */\n      dup3\n        /* \"#utility.yul\":3162:3255   */\n      tag_104\n      jump\t// in\n    tag_160:\n        /* \"#utility.yul\":3280:3282   */\n      0x20\n        /* \"#utility.yul\":3275:3278   */\n      dup3\n        /* \"#utility.yul\":3271:3283   */\n      add\n        /* \"#utility.yul\":3264:3283   */\n      swap1\n      pop\n        /* \"#utility.yul\":2923:3289   */\n      swap2\n      swap1\n      pop\n      jump\t// out\n        /* \"#utility.yul\":3295:3714   */\n    tag_38:\n        /* \"#utility.yul\":3461:3465   */\n      0x00\n        /* \"#utility.yul\":3499:3501   */\n      0x20\n        /* \"#utility.yul\":3488:3497   */\n      dup3\n        /* \"#utility.yul\":3484:3502   */\n      add\n        /* \"#utility.yul\":3476:3502   */\n      swap1\n      pop\n        /* \"#utility.yul\":3548:3557   */\n      dup2\n        /* \"#utility.yul\":3542:3546   */\n      dup2\n        /* \"#utility.yul\":3538:3558   */\n      sub\n        /* \"#utility.yul\":3534:3535   */\n      0x00\n        /* \"#utility.yul\":3523:3532   */\n      dup4\n        /* \"#utility.yul\":3519:3536   */\n      add\n        /* \"#utility.yul\":3512:3559   */\n      mstore\n        /* \"#utility.yul\":3576:3707   */\n      tag_162\n        /* \"#utility.yul\":3702:3706   */\n      dup2\n        /* \"#utility.yul\":3576:3707   */\n      tag_105\n      jump\t// in\n    tag_162:\n        /* \"#utility.yul\":3568:3707   */\n      swap1\n      pop\n        /* \"#utility.yul\":3295:3714   */\n      swap2\n      swap1\n      pop\n      jump\t// out\n        /* \"#utility.yul\":3720:3900   */\n    tag_45:\n        /* \"#utility.yul\":3768:3845   */\n      0x4e487b7100000000000000000000000000000000000000000000000000000000\n        /* \"#utility.yul\":3765:3766   */\n      0x00\n        /* \"#utility.yul\":3758:3846   */\n      mstore\n        /* \"#utility.yul\":3865:3869   */\n      0x32\n        /* \"#utility.yul\":3862:3863   */\n      0x04\n        /* \"#utility.yul\":3855:3870   */\n      mstore\n        /* \"#utility.yul\":3889:3893   */\n      0x24\n        /* \"#utility.yul\":3886:3887   */\n      0x00\n        /* \"#utility.yul\":3879:3894   */\n      revert\n        /* \"#utility.yul\":3906:4086   */\n    tag_49:\n        /* \"#utility.yul\":3954:4031   */\n      0x4e487b7100000000000000000000000000000000000000000000000000000000\n        /* \"#utility.yul\":3951:3952   */\n      0x00\n        /* \"#utility.yul\":3944:4032   */\n      mstore\n        /* \"#utility.yul\":4051:4055   */\n      0x41\n        /* \"#utility.yul\":4048:4049   */\n      0x04\n        /* \"#utility.yul\":4041:4056   */\n      mstore\n        /* \"#utility.yul\":4075:4079   */\n      0x24\n        /* \"#utility.yul\":4072:4073   */\n      0x00\n        /* \"#utility.yul\":4065:4080   */\n      revert\n        /* \"#utility.yul\":4092:4239   */\n    tag_106:\n        /* \"#utility.yul\":4193:4204   */\n      0x00\n        /* \"#utility.yul\":4230:4233   */\n      dup2\n        /* \"#utility.yul\":4215:4233   */\n      swap1\n      pop\n        /* \"#utility.yul\":4092:4239   */\n      swap3\n      swap2\n      pop\n      pop\n      jump\t// out\n        /* \"#utility.yul\":4245:4359   */\n    tag_107:\n      pop\n      jump\t// out\n        /* \"#utility.yul\":4365:4763   */\n    tag_108:\n        /* \"#utility.yul\":4524:4527   */\n      0x00\n        /* \"#utility.yul\":4545:4628   */\n      tag_168\n        /* \"#utility.yul\":4626:4627   */\n      0x00\n        /* \"#utility.yul\":4621:4624   */\n      dup4\n        /* \"#utility.yul\":4545:4628   */\n      tag_106\n      jump\t// in\n    tag_168:\n        /* \"#utility.yul\":4538:4628   */\n      swap2\n      pop\n        /* \"#utility.yul\":4637:4730   */\n      tag_169\n        /* \"#utility.yul\":4726:4729   */\n      dup3\n        /* \"#utility.yul\":4637:4730   */\n      tag_107\n      jump\t// in\n    tag_169:\n        /* \"#utility.yul\":4755:4756   */\n      0x00\n        /* \"#utility.yul\":4750:4753   */\n      dup3\n        /* \"#utility.yul\":4746:4757   */\n      add\n        /* \"#utility.yul\":4739:4757   */\n      swap1\n      pop\n        /* \"#utility.yul\":4365:4763   */\n      swap2\n      swap1\n      pop\n      jump\t// out\n        /* \"#utility.yul\":4769:5148   */\n    tag_54:\n        /* \"#utility.yul\":4953:4956   */\n      0x00\n        /* \"#utility.yul\":4975:5122   */\n      tag_171\n        /* \"#utility.yul\":5118:5121   */\n      dup3\n        /* \"#utility.yul\":4975:5122   */\n      tag_108\n      jump\t// in\n    tag_171:\n        /* \"#utility.yul\":4968:5122   */\n      swap2\n      pop\n        /* \"#utility.yul\":5139:5142   */\n      dup2\n        /* \"#utility.yul\":5132:5142   */\n      swap1\n      pop\n        /* \"#utility.yul\":4769:5148   */\n      swap2\n      swap1\n      pop\n      jump\t// out\n        /* \"#utility.yul\":5154:5322   */\n    tag_109:\n        /* \"#utility.yul\":5294:5310   */\n      0x43616c6c206661696c6564203a28000000000000000000000000000000000000\n        /* \"#utility.yul\":5290:5291   */\n      0x00\n        /* \"#utility.yul\":5282:5288   */\n      dup3\n        /* \"#utility.yul\":5278:5292   */\n      add\n        /* \"#utility.yul\":5271:5311   */\n      mstore\n        /* \"#utility.yul\":5154:5322   */\n      pop\n      jump\t// out\n        /* \"#utility.yul\":5332:5714   */\n    tag_110:\n        /* \"#utility.yul\":5474:5477   */\n      0x00\n        /* \"#utility.yul\":5499:5566   */\n      tag_174\n        /* \"#utility.yul\":5563:5565   */\n      0x0e\n        /* \"#utility.yul\":5558:5561   */\n      dup4\n        /* \"#utility.yul\":5499:5566   */\n      tag_103\n      jump\t// in\n    tag_174:\n        /* \"#utility.yul\":5492:5566   */\n      swap2\n      pop\n        /* \"#utility.yul\":5579:5672   */\n      tag_175\n        /* \"#utility.yul\":5668:5671   */\n      dup3\n        /* \"#utility.yul\":5579:5672   */\n      tag_109\n      jump\t// in\n    tag_175:\n        /* \"#utility.yul\":5701:5703   */\n      0x20\n        /* \"#utility.yul\":5696:5699   */\n      dup3\n        /* \"#utility.yul\":5692:5704   */\n      add\n        /* \"#utility.yul\":5685:5704   */\n      swap1\n      pop\n        /* \"#utility.yul\":5332:5714   */\n      swap2\n      swap1\n      pop\n      jump\t// out\n        /* \"#utility.yul\":5724:6159   */\n    tag_60:\n        /* \"#utility.yul\":5890:5894   */\n      0x00\n        /* \"#utility.yul\":5932:5934   */\n      0x20\n        /* \"#utility.yul\":5921:5930   */\n      dup3\n        /* \"#utility.yul\":5917:5935   */\n      add\n        /* \"#utility.yul\":5909:5935   */\n      swap1\n      pop\n        /* \"#utility.yul\":5985:5994   */\n      dup2\n        /* \"#utility.yul\":5979:5983   */\n      dup2\n        /* \"#utility.yul\":5975:5995   */\n      sub\n        /* \"#utility.yul\":5971:5972   */\n      0x00\n        /* \"#utility.yul\":5960:5969   */\n      dup4\n        /* \"#utility.yul\":5956:5973   */\n      add\n        /* \"#utility.yul\":5949:5996   */\n      mstore\n        /* \"#utility.yul\":6017:6148   */\n      tag_177\n        /* \"#utility.yul\":6143:6147   */\n      dup2\n        /* \"#utility.yul\":6017:6148   */\n      tag_110\n      jump\t// in\n    tag_177:\n        /* \"#utility.yul\":6009:6148   */\n      swap1\n      pop\n        /* \"#utility.yul\":5724:6159   */\n      swap2\n      swap1\n      pop\n      jump\t// out\n        /* \"#utility.yul\":6169:6358   */\n    tag_111:\n        /* \"#utility.yul\":6313:6342   */\n      0x4469646e27742073656e6420656e6f756768206574686572203a280000000000\n        /* \"#utility.yul\":6309:6310   */\n      0x00\n        /* \"#utility.yul\":6301:6307   */\n      dup3\n        /* \"#utility.yul\":6297:6311   */\n      add\n        /* \"#utility.yul\":6290:6343   */\n      mstore\n        /* \"#utility.yul\":6169:6358   */\n      pop\n      jump\t// out\n        /* \"#utility.yul\":6372:6770   */\n    tag_112:\n        /* \"#utility.yul\":6514:6517   */\n      0x00\n        /* \"#utility.yul\":6543:6610   */\n      tag_180\n        /* \"#utility.yul\":6607:6609   */\n      0x1b\n        /* \"#utility.yul\":6602:6605   */\n      dup4\n        /* \"#utility.yul\":6543:6610   */\n      tag_103\n      jump\t// in\n    tag_180:\n        /* \"#utility.yul\":6536:6610   */\n      swap2\n      pop\n        /* \"#utility.yul\":6627:6720   */\n      tag_181\n        /* \"#utility.yul\":6716:6719   */\n      dup3\n        /* \"#utility.yul\":6627:6720   */\n      tag_111\n      jump\t// in\n    tag_181:\n        /* \"#utility.yul\":6753:6755   */\n      0x20\n        /* \"#utility.yul\":6748:6751   */\n      dup3\n        /* \"#utility.yul\":6744:6756   */\n      add\n        /* \"#utility.yul\":6737:6756   */\n      swap1\n      pop\n        /* \"#utility.yul\":6372:6770   */\n      swap2\n      swap1\n      pop\n      jump\t// out\n        /* \"#utility.yul\":6784:7235   */\n    tag_66:\n        /* \"#utility.yul\":6950:6954   */\n      0x00\n        /* \"#utility.yul\":6996:6998   */\n      0x20\n        /* \"#utility.yul\":6985:6994   */\n      dup3\n        /* \"#utility.yul\":6981:6999   */\n      add\n        /* \"#utility.yul\":6973:6999   */\n      swap1\n      pop\n        /* \"#utility.yul\":7053:7062   */\n      dup2\n        /* \"#utility.yul\":7047:7051   */\n      dup2\n        /* \"#utility.yul\":7043:7063   */\n      sub\n        /* \"#utility.yul\":7039:7040   */\n      0x00\n        /* \"#utility.yul\":7028:7037   */\n      dup4\n        /* \"#utility.yul\":7024:7041   */\n      add\n        /* \"#utility.yul\":7017:7064   */\n      mstore\n        /* \"#utility.yul\":7089:7220   */\n      tag_183\n        /* \"#utility.yul\":7215:7219   */\n      dup2\n        /* \"#utility.yul\":7089:7220   */\n      tag_112\n      jump\t// in\n    tag_183:\n        /* \"#utility.yul\":7081:7220   */\n      swap1\n      pop\n        /* \"#utility.yul\":6784:7235   */\n      swap2\n      swap1\n      pop\n      jump\t// out\n        /* \"#utility.yul\":7249:7461   */\n    tag_113:\n        /* \"#utility.yul\":7305:7382   */\n      0x4e487b7100000000000000000000000000000000000000000000000000000000\n        /* \"#utility.yul\":7302:7303   */\n      0x00\n        /* \"#utility.yul\":7295:7383   */\n      mstore\n        /* \"#utility.yul\":7410:7414   */\n      0x11\n        /* \"#utility.yul\":7407:7408   */\n      0x04\n        /* \"#utility.yul\":7400:7415   */\n      mstore\n        /* \"#utility.yul\":7442:7446   */\n      0x24\n        /* \"#utility.yul\":7439:7440   */\n      0x00\n        /* \"#utility.yul\":7432:7447   */\n      revert\n        /* \"#utility.yul\":7475:7981   */\n    tag_74:\n        /* \"#utility.yul\":7515:7522   */\n      0x00\n        /* \"#utility.yul\":7546:7566   */\n      tag_186\n        /* \"#utility.yul\":7564:7565   */\n      dup3\n        /* \"#utility.yul\":7546:7566   */\n      tag_91\n      jump\t// in\n    tag_186:\n        /* \"#utility.yul\":7541:7566   */\n      swap2\n      pop\n        /* \"#utility.yul\":7588:7608   */\n      tag_187\n        /* \"#utility.yul\":7606:7607   */\n      dup4\n        /* \"#utility.yul\":7588:7608   */\n      tag_91\n      jump\t// in\n    tag_187:\n        /* \"#utility.yul\":7583:7608   */\n      swap3\n      pop\n        /* \"#utility.yul\":7651:7652   */\n      dup3\n        /* \"#utility.yul\":7648:7649   */\n      dup3\n        /* \"#utility.yul\":7644:7653   */\n      mul\n        /* \"#utility.yul\":7681:7711   */\n      tag_188\n        /* \"#utility.yul\":7699:7710   */\n      dup2\n        /* \"#utility.yul\":7681:7711   */\n      tag_91\n      jump\t// in\n    tag_188:\n        /* \"#utility.yul\":7670:7711   */\n      swap2\n      pop\n        /* \"#utility.yul\":7900:7901   */\n      dup3\n        /* \"#utility.yul\":7891:7898   */\n      dup3\n        /* \"#utility.yul\":7887:7902   */\n      div\n        /* \"#utility.yul\":7884:7885   */\n      dup5\n        /* \"#utility.yul\":7881:7903   */\n      eq\n        /* \"#utility.yul\":7853:7854   */\n      dup4\n        /* \"#utility.yul\":7846:7855   */\n      iszero\n        /* \"#utility.yul\":7818:7925   */\n      or\n        /* \"#utility.yul\":7787:7966   */\n      tag_189\n      jumpi\n        /* \"#utility.yul\":7946:7964   */\n      tag_190\n      tag_113\n      jump\t// in\n    tag_190:\n        /* \"#utility.yul\":7787:7966   */\n    tag_189:\n        /* \"#utility.yul\":7523:7981   */\n      pop\n        /* \"#utility.yul\":7475:7981   */\n      swap3\n      swap2\n      pop\n      pop\n      jump\t// out\n        /* \"#utility.yul\":7995:8207   */\n    tag_114:\n        /* \"#utility.yul\":8051:8128   */\n      0x4e487b7100000000000000000000000000000000000000000000000000000000\n        /* \"#utility.yul\":8048:8049   */\n      0x00\n        /* \"#utility.yul\":8041:8129   */\n      mstore\n        /* \"#utility.yul\":8156:8160   */\n      0x12\n        /* \"#utility.yul\":8153:8154   */\n      0x04\n        /* \"#utility.yul\":8146:8161   */\n      mstore\n        /* \"#utility.yul\":8188:8192   */\n      0x24\n        /* \"#utility.yul\":8185:8186   */\n      0x00\n        /* \"#utility.yul\":8178:8193   */\n      revert\n        /* \"#utility.yul\":8221:8446   */\n    tag_76:\n        /* \"#utility.yul\":8261:8262   */\n      0x00\n        /* \"#utility.yul\":8286:8306   */\n      tag_193\n        /* \"#utility.yul\":8304:8305   */\n      dup3\n        /* \"#utility.yul\":8286:8306   */\n      tag_91\n      jump\t// in\n    tag_193:\n        /* \"#utility.yul\":8281:8306   */\n      swap2\n      pop\n        /* \"#utility.yul\":8328:8348   */\n      tag_194\n        /* \"#utility.yul\":8346:8347   */\n      dup4\n        /* \"#utility.yul\":8328:8348   */\n      tag_91\n      jump\t// in\n    tag_194:\n        /* \"#utility.yul\":8323:8348   */\n      swap3\n      pop\n        /* \"#utility.yul\":8375:8376   */\n      dup3\n        /* \"#utility.yul\":8365:8400   */\n      tag_195\n      jumpi\n        /* \"#utility.yul\":8380:8398   */\n      tag_196\n      tag_114\n      jump\t// in\n    tag_196:\n        /* \"#utility.yul\":8365:8400   */\n    tag_195:\n        /* \"#utility.yul\":8430:8431   */\n      dup3\n        /* \"#utility.yul\":8427:8428   */\n      dup3\n        /* \"#utility.yul\":8423:8432   */\n      div\n        /* \"#utility.yul\":8418:8432   */\n      swap1\n      pop\n        /* \"#utility.yul\":8221:8446   */\n      swap3\n      swap2\n      pop\n      pop\n      jump\t// out\n        /* \"#utility.yul\":8460:8581   */\n    tag_115:\n        /* \"#utility.yul\":8496:8503   */\n      0x00\n        /* \"#utility.yul\":8544:8566   */\n      0xffffffffffffffffffff\n        /* \"#utility.yul\":8537:8542   */\n      dup3\n        /* \"#utility.yul\":8533:8567   */\n      and\n        /* \"#utility.yul\":8522:8567   */\n      swap1\n      pop\n        /* \"#utility.yul\":8460:8581   */\n      swap2\n      swap1\n      pop\n      jump\t// out\n        /* \"#utility.yul\":8595:8731   */\n    tag_116:\n        /* \"#utility.yul\":8675:8698   */\n      tag_199\n        /* \"#utility.yul\":8692:8697   */\n      dup2\n        /* \"#utility.yul\":8675:8698   */\n      tag_115\n      jump\t// in\n    tag_199:\n        /* \"#utility.yul\":8668:8673   */\n      dup2\n        /* \"#utility.yul\":8665:8699   */\n      eq\n        /* \"#utility.yul\":8655:8717   */\n      tag_200\n      jumpi\n        /* \"#utility.yul\":8713:8714   */\n      0x00\n        /* \"#utility.yul\":8710:8711   */\n      0x00\n        /* \"#utility.yul\":8703:8715   */\n      revert\n        /* \"#utility.yul\":8655:8717   */\n    tag_200:\n        /* \"#utility.yul\":8595:8731   */\n      pop\n      jump\t// out\n        /* \"#utility.yul\":8745:8910   */\n    tag_117:\n        /* \"#utility.yul\":8801:8806   */\n      0x00\n        /* \"#utility.yul\":8840:8846   */\n      dup2\n        /* \"#utility.yul\":8834:8847   */\n      mload\n        /* \"#utility.yul\":8825:8847   */\n      swap1\n      pop\n        /* \"#utility.yul\":8864:8896   */\n      tag_202\n        /* \"#utility.yul\":8890:8895   */\n      dup2\n        /* \"#utility.yul\":8864:8896   */\n      tag_116\n      jump\t// in\n    tag_202:\n        /* \"#utility.yul\":8745:8910   */\n      swap3\n      swap2\n      pop\n      pop\n      jump\t// out\n        /* \"#utility.yul\":8924:9016   */\n    tag_118:\n        /* \"#utility.yul\":8960:8967   */\n      0x00\n        /* \"#utility.yul\":8997:9002   */\n      dup2\n        /* \"#utility.yul\":8986:9002   */\n      swap1\n      pop\n        /* \"#utility.yul\":8924:9016   */\n      swap2\n      swap1\n      pop\n      jump\t// out\n        /* \"#utility.yul\":9030:9166   */\n    tag_119:\n        /* \"#utility.yul\":9110:9133   */\n      tag_205\n        /* \"#utility.yul\":9127:9132   */\n      dup2\n        /* \"#utility.yul\":9110:9133   */\n      tag_118\n      jump\t// in\n    tag_205:\n        /* \"#utility.yul\":9103:9108   */\n      dup2\n        /* \"#utility.yul\":9100:9134   */\n      eq\n        /* \"#utility.yul\":9090:9152   */\n      tag_206\n      jumpi\n        /* \"#utility.yul\":9148:9149   */\n      0x00\n        /* \"#utility.yul\":9145:9146   */\n      0x00\n        /* \"#utility.yul\":9138:9150   */\n      revert\n        /* \"#utility.yul\":9090:9152   */\n    tag_206:\n        /* \"#utility.yul\":9030:9166   */\n      pop\n      jump\t// out\n        /* \"#utility.yul\":9180:9345   */\n    tag_120:\n        /* \"#utility.yul\":9236:9241   */\n      0x00\n        /* \"#utility.yul\":9275:9281   */\n      dup2\n        /* \"#utility.yul\":9269:9282   */\n      mload\n        /* \"#utility.yul\":9260:9282   */\n      swap1\n      pop\n        /* \"#utility.yul\":9299:9331   */\n      tag_208\n        /* \"#utility.yul\":9325:9330   */\n      dup2\n        /* \"#utility.yul\":9299:9331   */\n      tag_119\n      jump\t// in\n    tag_208:\n        /* \"#utility.yul\":9180:9345   */\n      swap3\n      swap2\n      pop\n      pop\n      jump\t// out\n        /* \"#utility.yul\":9359:9526   */\n    tag_121:\n        /* \"#utility.yul\":9416:9421   */\n      0x00\n        /* \"#utility.yul\":9455:9461   */\n      dup2\n        /* \"#utility.yul\":9449:9462   */\n      mload\n        /* \"#utility.yul\":9440:9462   */\n      swap1\n      pop\n        /* \"#utility.yul\":9479:9512   */\n      tag_210\n        /* \"#utility.yul\":9506:9511   */\n      dup2\n        /* \"#utility.yul\":9479:9512   */\n      tag_101\n      jump\t// in\n    tag_210:\n        /* \"#utility.yul\":9359:9526   */\n      swap3\n      swap2\n      pop\n      pop\n      jump\t// out\n        /* \"#utility.yul\":9540:10687   */\n    tag_81:\n        /* \"#utility.yul\":9643:9649   */\n      0x00\n        /* \"#utility.yul\":9651:9657   */\n      0x00\n        /* \"#utility.yul\":9659:9665   */\n      0x00\n        /* \"#utility.yul\":9667:9673   */\n      0x00\n        /* \"#utility.yul\":9675:9681   */\n      0x00\n        /* \"#utility.yul\":9732:9735   */\n      0xa0\n        /* \"#utility.yul\":9720:9729   */\n      dup7\n        /* \"#utility.yul\":9711:9718   */\n      dup9\n        /* \"#utility.yul\":9707:9730   */\n      sub\n        /* \"#utility.yul\":9703:9736   */\n      slt\n        /* \"#utility.yul\":9700:9820   */\n      iszero\n      tag_212\n      jumpi\n        /* \"#utility.yul\":9739:9818   */\n      tag_213\n      tag_94\n      jump\t// in\n    tag_213:\n        /* \"#utility.yul\":9700:9820   */\n    tag_212:\n        /* \"#utility.yul\":9875:9876   */\n      0x00\n        /* \"#utility.yul\":9908:9971   */\n      tag_214\n        /* \"#utility.yul\":9963:9970   */\n      dup9\n        /* \"#utility.yul\":9954:9960   */\n      dup3\n        /* \"#utility.yul\":9943:9952   */\n      dup10\n        /* \"#utility.yul\":9939:9961   */\n      add\n        /* \"#utility.yul\":9908:9971   */\n      tag_117\n      jump\t// in\n    tag_214:\n        /* \"#utility.yul\":9898:9971   */\n      swap6\n      pop\n        /* \"#utility.yul\":9838:9989   */\n      pop\n        /* \"#utility.yul\":10044:10046   */\n      0x20\n        /* \"#utility.yul\":10078:10141   */\n      tag_215\n        /* \"#utility.yul\":10133:10140   */\n      dup9\n        /* \"#utility.yul\":10124:10130   */\n      dup3\n        /* \"#utility.yul\":10113:10122   */\n      dup10\n        /* \"#utility.yul\":10109:10131   */\n      add\n        /* \"#utility.yul\":10078:10141   */\n      tag_120\n      jump\t// in\n    tag_215:\n        /* \"#utility.yul\":10068:10141   */\n      swap5\n      pop\n        /* \"#utility.yul\":10007:10159   */\n      pop\n        /* \"#utility.yul\":10214:10216   */\n      0x40\n        /* \"#utility.yul\":10248:10312   */\n      tag_216\n        /* \"#utility.yul\":10304:10311   */\n      dup9\n        /* \"#utility.yul\":10295:10301   */\n      dup3\n        /* \"#utility.yul\":10284:10293   */\n      dup10\n        /* \"#utility.yul\":10280:10302   */\n      add\n        /* \"#utility.yul\":10248:10312   */\n      tag_121\n      jump\t// in\n    tag_216:\n        /* \"#utility.yul\":10238:10312   */\n      swap4\n      pop\n        /* \"#utility.yul\":10177:10330   */\n      pop\n        /* \"#utility.yul\":10385:10387   */\n      0x60\n        /* \"#utility.yul\":10419:10483   */\n      tag_217\n        /* \"#utility.yul\":10475:10482   */\n      dup9\n        /* \"#utility.yul\":10466:10472   */\n      dup3\n        /* \"#utility.yul\":10455:10464   */\n      dup10\n        /* \"#utility.yul\":10451:10473   */\n      add\n        /* \"#utility.yul\":10419:10483   */\n      tag_121\n      jump\t// in\n    tag_217:\n        /* \"#utility.yul\":10409:10483   */\n      swap3\n      pop\n        /* \"#utility.yul\":10348:10501   */\n      pop\n        /* \"#utility.yul\":10556:10559   */\n      0x80\n        /* \"#utility.yul\":10591:10654   */\n      tag_218\n        /* \"#utility.yul\":10646:10653   */\n      dup9\n        /* \"#utility.yul\":10637:10643   */\n      dup3\n        /* \"#utility.yul\":10626:10635   */\n      dup10\n        /* \"#utility.yul\":10622:10644   */\n      add\n        /* \"#utility.yul\":10591:10654   */\n      tag_117\n      jump\t// in\n    tag_218:\n        /* \"#utility.yul\":10581:10654   */\n      swap2\n      pop\n        /* \"#utility.yul\":10519:10672   */\n      pop\n        /* \"#utility.yul\":9540:10687   */\n      swap3\n      swap6\n      pop\n      swap3\n      swap6\n      swap1\n      swap4\n      pop\n      jump\t// out\n        /* \"#utility.yul\":10701:11369   */\n    tag_83:\n        /* \"#utility.yul\":10740:10747   */\n      0x00\n        /* \"#utility.yul\":10771:10790   */\n      tag_220\n        /* \"#utility.yul\":10788:10789   */\n      dup3\n        /* \"#utility.yul\":10771:10790   */\n      tag_118\n      jump\t// in\n    tag_220:\n        /* \"#utility.yul\":10766:10790   */\n      swap2\n      pop\n        /* \"#utility.yul\":10812:10831   */\n      tag_221\n        /* \"#utility.yul\":10829:10830   */\n      dup4\n        /* \"#utility.yul\":10812:10831   */\n      tag_118\n      jump\t// in\n    tag_221:\n        /* \"#utility.yul\":10807:10831   */\n      swap3\n      pop\n        /* \"#utility.yul\":10874:10875   */\n      dup3\n        /* \"#utility.yul\":10871:10872   */\n      dup3\n        /* \"#utility.yul\":10867:10876   */\n      mul\n        /* \"#utility.yul\":10904:10933   */\n      tag_222\n        /* \"#utility.yul\":10921:10932   */\n      dup2\n        /* \"#utility.yul\":10904:10933   */\n      tag_118\n      jump\t// in\n    tag_222:\n        /* \"#utility.yul\":10893:10933   */\n      swap2\n      pop\n        /* \"#utility.yul\":11007:11073   */\n      0x8000000000000000000000000000000000000000000000000000000000000000\n        /* \"#utility.yul\":11004:11005   */\n      dup5\n        /* \"#utility.yul\":11001:11074   */\n      eq\n        /* \"#utility.yul\":10997:10998   */\n      0x00\n        /* \"#utility.yul\":10994:10995   */\n      dup5\n        /* \"#utility.yul\":10990:10999   */\n      slt\n        /* \"#utility.yul\":10986:11075   */\n      and\n        /* \"#utility.yul\":10983:11098   */\n      iszero\n      tag_223\n      jumpi\n        /* \"#utility.yul\":11078:11096   */\n      tag_224\n      tag_113\n      jump\t// in\n    tag_224:\n        /* \"#utility.yul\":10983:11098   */\n    tag_223:\n        /* \"#utility.yul\":11288:11289   */\n      dup3\n        /* \"#utility.yul\":11279:11286   */\n      dup3\n        /* \"#utility.yul\":11274:11290   */\n      sdiv\n        /* \"#utility.yul\":11271:11272   */\n      dup5\n        /* \"#utility.yul\":11268:11291   */\n      eq\n        /* \"#utility.yul\":11240:11241   */\n      dup4\n        /* \"#utility.yul\":11233:11242   */\n      iszero\n        /* \"#utility.yul\":11205:11313   */\n      or\n        /* \"#utility.yul\":11174:11354   */\n      tag_225\n      jumpi\n        /* \"#utility.yul\":11334:11352   */\n      tag_226\n      tag_113\n      jump\t// in\n    tag_226:\n        /* \"#utility.yul\":11174:11354   */\n    tag_225:\n        /* \"#utility.yul\":10748:11369   */\n      pop\n        /* \"#utility.yul\":10701:11369   */\n      swap3\n      swap2\n      pop\n      pop\n      jump\t// out\n\n    auxdata: 0xa26469706673582212205b6ecd7500651e2634f8a9491d58416af912698b9fb1e3d8cee9c2b1f3e43c5964736f6c634300081b0033\n}\n",
				"bytecode": {
					"linkReferences": {},
					"object": "60806040526802b5e3af16b18800005f55348015601a575f5ffd5b503360035f6101000a81548173ffffffffffffffffffffffffffffffffffffffff021916908373ffffffffffffffffffffffffffffffffffffffff160217905550610bf6806100685f395ff3fe608060405260043610610054575f3560e01c8063098de820146100585780633ccfd60b146100825780633e47d6f3146100985780638da5cb5b146100d4578063b60d4288146100fe578063dc0d3dff14610108575b5f5ffd5b348015610063575f5ffd5b5061006c610144565b6040516100799190610680565b60405180910390f35b34801561008d575f5ffd5b50610096610149565b005b3480156100a3575f5ffd5b506100be60048036038101906100b991906106f7565b610384565b6040516100cb9190610680565b60405180910390f35b3480156100df575f5ffd5b506100e8610399565b6040516100f59190610731565b60405180910390f35b6101066103be565b005b348015610113575f5ffd5b5061012e60048036038101906101299190610774565b6104ae565b60405161013b9190610731565b60405180910390f35b5f5481565b60035f9054906101000a900473ffffffffffffffffffffffffffffffffffffffff1673ffffffffffffffffffffffffffffffffffffffff163373ffffffffffffffffffffffffffffffffffffffff16146101d8576040517f08c379a00000000000000000000000000000000000000000000000000000000081526004016101cf906107f9565b60405180910390fd5b5f5f90505b600180549050811015610279575f600182815481106101ff576101fe610817565b5b905f5260205f20015f9054906101000a900473ffffffffffffffffffffffffffffffffffffffff1690505f60025f8373ffffffffffffffffffffffffffffffffffffffff1673ffffffffffffffffffffffffffffffffffffffff1681526020019081526020015f20819055505080806001019150506101dd565b505f67ffffffffffffffff81111561029457610293610844565b5b6040519080825280602002602001820160405280156102c25781602001602082028036833780820191505090505b50600190805190602001906102d89291906105c6565b505f3373ffffffffffffffffffffffffffffffffffffffff16476040516102fe9061089e565b5f6040518083038185875af1925050503d805f8114610338576040519150601f19603f3d011682016040523d82523d5f602084013e61033d565b606091505b5050905080610381576040517f08c379a0000000000000000000000000000000000000000000000000000000008152600401610378906108fc565b60405180910390fd5b50565b6002602052805f5260405f205f915090505481565b60035f9054906101000a900473ffffffffffffffffffffffffffffffffffffffff1681565b5f546103c9346104e9565b101561040a576040517f08c379a000000000000000000000000000000000000000000000000000000000815260040161040190610964565b60405180910390fd5b600133908060018154018082558091505060019003905f5260205f20015f9091909190916101000a81548173ffffffffffffffffffffffffffffffffffffffff021916908373ffffffffffffffffffffffffffffffffffffffff1602179055503460025f3373ffffffffffffffffffffffffffffffffffffffff1673ffffffffffffffffffffffffffffffffffffffff1681526020019081526020015f2081905550565b600181815481106104bd575f80fd5b905f5260205f20015f915054906101000a900473ffffffffffffffffffffffffffffffffffffffff1681565b5f5f6104f3610521565b90505f670de0b6b3a7640000848361050b91906109af565b6105159190610a1d565b90508092505050919050565b5f5f73694aa1769357215de4fac081bf1f309adc32530690505f8173ffffffffffffffffffffffffffffffffffffffff1663feaf968c6040518163ffffffff1660e01b815260040160a060405180830381865afa158015610584573d5f5f3e3d5ffd5b505050506040513d601f19601f820116820180604052508101906105a89190610ad3565b5050509150506402540be400816105bf9190610b4a565b9250505090565b828054828255905f5260205f2090810192821561063c579160200282015b8281111561063b578251825f6101000a81548173ffffffffffffffffffffffffffffffffffffffff021916908373ffffffffffffffffffffffffffffffffffffffff160217905550916020019190600101906105e4565b5b509050610649919061064d565b5090565b5b80821115610664575f815f90555060010161064e565b5090565b5f819050919050565b61067a81610668565b82525050565b5f6020820190506106935f830184610671565b92915050565b5f5ffd5b5f73ffffffffffffffffffffffffffffffffffffffff82169050919050565b5f6106c68261069d565b9050919050565b6106d6816106bc565b81146106e0575f5ffd5b50565b5f813590506106f1816106cd565b92915050565b5f6020828403121561070c5761070b610699565b5b5f610719848285016106e3565b91505092915050565b61072b816106bc565b82525050565b5f6020820190506107445f830184610722565b92915050565b61075381610668565b811461075d575f5ffd5b50565b5f8135905061076e8161074a565b92915050565b5f6020828403121561078957610788610699565b5b5f61079684828501610760565b91505092915050565b5f82825260208201905092915050565b7f53656e646572206973206e6f74206f776e6572212100000000000000000000005f82015250565b5f6107e360158361079f565b91506107ee826107af565b602082019050919050565b5f6020820190508181035f830152610810816107d7565b9050919050565b7f4e487b71000000000000000000000000000000000000000000000000000000005f52603260045260245ffd5b7f4e487b71000000000000000000000000000000000000000000000000000000005f52604160045260245ffd5b5f81905092915050565b50565b5f6108895f83610871565b91506108948261087b565b5f82019050919050565b5f6108a88261087e565b9150819050919050565b7f43616c6c206661696c6564203a280000000000000000000000000000000000005f82015250565b5f6108e6600e8361079f565b91506108f1826108b2565b602082019050919050565b5f6020820190508181035f830152610913816108da565b9050919050565b7f4469646e27742073656e6420656e6f756768206574686572203a2800000000005f82015250565b5f61094e601b8361079f565b91506109598261091a565b602082019050919050565b5f6020820190508181035f83015261097b81610942565b9050919050565b7f4e487b71000000000000000000000000000000000000000000000000000000005f52601160045260245ffd5b5f6109b982610668565b91506109c483610668565b92508282026109d281610668565b915082820484148315176109e9576109e8610982565b5b5092915050565b7f4e487b71000000000000000000000000000000000000000000000000000000005f52601260045260245ffd5b5f610a2782610668565b9150610a3283610668565b925082610a4257610a416109f0565b5b828204905092915050565b5f69ffffffffffffffffffff82169050919050565b610a6b81610a4d565b8114610a75575f5ffd5b50565b5f81519050610a8681610a62565b92915050565b5f819050919050565b610a9e81610a8c565b8114610aa8575f5ffd5b50565b5f81519050610ab981610a95565b92915050565b5f81519050610acd8161074a565b92915050565b5f5f5f5f5f60a08688031215610aec57610aeb610699565b5b5f610af988828901610a78565b9550506020610b0a88828901610aab565b9450506040610b1b88828901610abf565b9350506060610b2c88828901610abf565b9250506080610b3d88828901610a78565b9150509295509295909350565b5f610b5482610a8c565b9150610b5f83610a8c565b9250828202610b6d81610a8c565b91507f800000000000000000000000000000000000000000000000000000000000000084145f84121615610ba457610ba3610982565b5b8282058414831517610bb957610bb8610982565b5b509291505056fea26469706673582212205b6ecd7500651e2634f8a9491d58416af912698b9fb1e3d8cee9c2b1f3e43c5964736f6c634300081b0033",
					"opcodes": "PUSH1 0x80 PUSH1 0x40 MSTORE PUSH9 0x2B5E3AF16B1880000 PUSH0 SSTORE CALLVALUE DUP1 ISZERO PUSH1 0x1A JUMPI PUSH0 PUSH0 REVERT JUMPDEST POP CALLER PUSH1 0x3 PUSH0 PUSH2 0x100 EXP DUP2 SLOAD DUP2 PUSH20 0xFFFFFFFFFFFFFFFFFFFFFFFFFFFFFFFFFFFFFFFF MUL NOT AND SWAP1 DUP4 PUSH20 0xFFFFFFFFFFFFFFFFFFFFFFFFFFFFFFFFFFFFFFFF AND MUL OR SWAP1 SSTORE POP PUSH2 0xBF6 DUP1 PUSH2 0x68 PUSH0 CODECOPY PUSH0 RETURN INVALID PUSH1 0x80 PUSH1 0x40 MSTORE PUSH1 0x4 CALLDATASIZE LT PUSH2 0x54 JUMPI PUSH0 CALLDATALOAD PUSH1 0xE0 SHR DUP1 PUSH4 0x98DE820 EQ PUSH2 0x58 JUMPI DUP1 PUSH4 0x3CCFD60B EQ PUSH2 0x82 JUMPI DUP1 PUSH4 0x3E47D6F3 EQ PUSH2 0x98 JUMPI DUP1 PUSH4 0x8DA5CB5B EQ PUSH2 0xD4 JUMPI DUP1 PUSH4 0xB60D4288 EQ PUSH2 0xFE JUMPI DUP1 PUSH4 0xDC0D3DFF EQ PUSH2 0x108 JUMPI JUMPDEST PUSH0 PUSH0 REVERT JUMPDEST CALLVALUE DUP1 ISZERO PUSH2 0x63 JUMPI PUSH0 PUSH0 REVERT JUMPDEST POP PUSH2 0x6C PUSH2 0x144 JUMP JUMPDEST PUSH1 0x40 MLOAD PUSH2 0x79 SWAP2 SWAP1 PUSH2 0x680 JUMP JUMPDEST PUSH1 0x40 MLOAD DUP1 SWAP2 SUB SWAP1 RETURN JUMPDEST CALLVALUE DUP1 ISZERO PUSH2 0x8D JUMPI PUSH0 PUSH0 REVERT JUMPDEST POP PUSH2 0x96 PUSH2 0x149 JUMP JUMPDEST STOP JUMPDEST CALLVALUE DUP1 ISZERO PUSH2 0xA3 JUMPI PUSH0 PUSH0 REVERT JUMPDEST POP PUSH2 0xBE PUSH1 0x4 DUP1 CALLDATASIZE SUB DUP2 ADD SWAP1 PUSH2 0xB9 SWAP2 SWAP1 PUSH2 0x6F7 JUMP JUMPDEST PUSH2 0x384 JUMP JUMPDEST PUSH1 0x40 MLOAD PUSH2 0xCB SWAP2 SWAP1 PUSH2 0x680 JUMP JUMPDEST PUSH1 0x40 MLOAD DUP1 SWAP2 SUB SWAP1 RETURN JUMPDEST CALLVALUE DUP1 ISZERO PUSH2 0xDF JUMPI PUSH0 PUSH0 REVERT JUMPDEST POP PUSH2 0xE8 PUSH2 0x399 JUMP JUMPDEST PUSH1 0x40 MLOAD PUSH2 0xF5 SWAP2 SWAP1 PUSH2 0x731 JUMP JUMPDEST PUSH1 0x40 MLOAD DUP1 SWAP2 SUB SWAP1 RETURN JUMPDEST PUSH2 0x106 PUSH2 0x3BE JUMP JUMPDEST STOP JUMPDEST CALLVALUE DUP1 ISZERO PUSH2 0x113 JUMPI PUSH0 PUSH0 REVERT JUMPDEST POP PUSH2 0x12E PUSH1 0x4 DUP1 CALLDATASIZE SUB DUP2 ADD SWAP1 PUSH2 0x129 SWAP2 SWAP1 PUSH2 0x774 JUMP JUMPDEST PUSH2 0x4AE JUMP JUMPDEST PUSH1 0x40 MLOAD PUSH2 0x13B SWAP2 SWAP1 PUSH2 0x731 JUMP JUMPDEST PUSH1 0x40 MLOAD DUP1 SWAP2 SUB SWAP1 RETURN JUMPDEST PUSH0 SLOAD DUP2 JUMP JUMPDEST PUSH1 0x3 PUSH0 SWAP1 SLOAD SWAP1 PUSH2 0x100 EXP SWAP1 DIV PUSH20 0xFFFFFFFFFFFFFFFFFFFFFFFFFFFFFFFFFFFFFFFF AND PUSH20 0xFFFFFFFFFFFFFFFFFFFFFFFFFFFFFFFFFFFFFFFF AND CALLER PUSH20 0xFFFFFFFFFFFFFFFFFFFFFFFFFFFFFFFFFFFFFFFF AND EQ PUSH2 0x1D8 JUMPI PUSH1 0x40 MLOAD PUSH32 0x8C379A000000000000000000000000000000000000000000000000000000000 DUP2 MSTORE PUSH1 0x4 ADD PUSH2 0x1CF SWAP1 PUSH2 0x7F9 JUMP JUMPDEST PUSH1 0x40 MLOAD DUP1 SWAP2 SUB SWAP1 REVERT JUMPDEST PUSH0 PUSH0 SWAP1 POP JUMPDEST PUSH1 0x1 DUP1 SLOAD SWAP1 POP DUP2 LT ISZERO PUSH2 0x279 JUMPI PUSH0 PUSH1 0x1 DUP3 DUP2 SLOAD DUP2 LT PUSH2 0x1FF JUMPI PUSH2 0x1FE PUSH2 0x817 JUMP JUMPDEST JUMPDEST SWAP1 PUSH0 MSTORE PUSH1 0x20 PUSH0 KECCAK256 ADD PUSH0 SWAP1 SLOAD SWAP1 PUSH2 0x100 EXP SWAP1 DIV PUSH20 0xFFFFFFFFFFFFFFFFFFFFFFFFFFFFFFFFFFFFFFFF AND SWAP1 POP PUSH0 PUSH1 0x2 PUSH0 DUP4 PUSH20 0xFFFFFFFFFFFFFFFFFFFFFFFFFFFFFFFFFFFFFFFF AND PUSH20 0xFFFFFFFFFFFFFFFFFFFFFFFFFFFFFFFFFFFFFFFF AND DUP2 MSTORE PUSH1 0x20 ADD SWAP1 DUP2 MSTORE PUSH1 0x20 ADD PUSH0 KECCAK256 DUP2 SWAP1 SSTORE POP POP DUP1 DUP1 PUSH1 0x1 ADD SWAP2 POP POP PUSH2 0x1DD JUMP JUMPDEST POP PUSH0 PUSH8 0xFFFFFFFFFFFFFFFF DUP2 GT ISZERO PUSH2 0x294 JUMPI PUSH2 0x293 PUSH2 0x844 JUMP JUMPDEST JUMPDEST PUSH1 0x40 MLOAD SWAP1 DUP1 DUP3 MSTORE DUP1 PUSH1 0x20 MUL PUSH1 0x20 ADD DUP3 ADD PUSH1 0x40 MSTORE DUP1 ISZERO PUSH2 0x2C2 JUMPI DUP2 PUSH1 0x20 ADD PUSH1 0x20 DUP3 MUL DUP1 CALLDATASIZE DUP4 CALLDATACOPY DUP1 DUP3 ADD SWAP2 POP POP SWAP1 POP JUMPDEST POP PUSH1 0x1 SWAP1 DUP1 MLOAD SWAP1 PUSH1 0x20 ADD SWAP1 PUSH2 0x2D8 SWAP3 SWAP2 SWAP1 PUSH2 0x5C6 JUMP JUMPDEST POP PUSH0 CALLER PUSH20 0xFFFFFFFFFFFFFFFFFFFFFFFFFFFFFFFFFFFFFFFF AND SELFBALANCE PUSH1 0x40 MLOAD PUSH2 0x2FE SWAP1 PUSH2 0x89E JUMP JUMPDEST PUSH0 PUSH1 0x40 MLOAD DUP1 DUP4 SUB DUP2 DUP6 DUP8 GAS CALL SWAP3 POP POP POP RETURNDATASIZE DUP1 PUSH0 DUP2 EQ PUSH2 0x338 JUMPI PUSH1 0x40 MLOAD SWAP2 POP PUSH1 0x1F NOT PUSH1 0x3F RETURNDATASIZE ADD AND DUP3 ADD PUSH1 0x40 MSTORE RETURNDATASIZE DUP3 MSTORE RETURNDATASIZE PUSH0 PUSH1 0x20 DUP5 ADD RETURNDATACOPY PUSH2 0x33D JUMP JUMPDEST PUSH1 0x60 SWAP2 POP JUMPDEST POP POP SWAP1 POP DUP1 PUSH2 0x381 JUMPI PUSH1 0x40 MLOAD PUSH32 0x8C379A000000000000000000000000000000000000000000000000000000000 DUP2 MSTORE PUSH1 0x4 ADD PUSH2 0x378 SWAP1 PUSH2 0x8FC JUMP JUMPDEST PUSH1 0x40 MLOAD DUP1 SWAP2 SUB SWAP1 REVERT JUMPDEST POP JUMP JUMPDEST PUSH1 0x2 PUSH1 0x20 MSTORE DUP1 PUSH0 MSTORE PUSH1 0x40 PUSH0 KECCAK256 PUSH0 SWAP2 POP SWAP1 POP SLOAD DUP2 JUMP JUMPDEST PUSH1 0x3 PUSH0 SWAP1 SLOAD SWAP1 PUSH2 0x100 EXP SWAP1 DIV PUSH20 0xFFFFFFFFFFFFFFFFFFFFFFFFFFFFFFFFFFFFFFFF AND DUP2 JUMP JUMPDEST PUSH0 SLOAD PUSH2 0x3C9 CALLVALUE PUSH2 0x4E9 JUMP JUMPDEST LT ISZERO PUSH2 0x40A JUMPI PUSH1 0x40 MLOAD PUSH32 0x8C379A000000000000000000000000000000000000000000000000000000000 DUP2 MSTORE PUSH1 0x4 ADD PUSH2 0x401 SWAP1 PUSH2 0x964 JUMP JUMPDEST PUSH1 0x40 MLOAD DUP1 SWAP2 SUB SWAP1 REVERT JUMPDEST PUSH1 0x1 CALLER SWAP1 DUP1 PUSH1 0x1 DUP2 SLOAD ADD DUP1 DUP3 SSTORE DUP1 SWAP2 POP POP PUSH1 0x1 SWAP1 SUB SWAP1 PUSH0 MSTORE PUSH1 0x20 PUSH0 KECCAK256 ADD PUSH0 SWAP1 SWAP2 SWAP1 SWAP2 SWAP1 SWAP2 PUSH2 0x100 EXP DUP2 SLOAD DUP2 PUSH20 0xFFFFFFFFFFFFFFFFFFFFFFFFFFFFFFFFFFFFFFFF MUL NOT AND SWAP1 DUP4 PUSH20 0xFFFFFFFFFFFFFFFFFFFFFFFFFFFFFFFFFFFFFFFF AND MUL OR SWAP1 SSTORE POP CALLVALUE PUSH1 0x2 PUSH0 CALLER PUSH20 0xFFFFFFFFFFFFFFFFFFFFFFFFFFFFFFFFFFFFFFFF AND PUSH20 0xFFFFFFFFFFFFFFFFFFFFFFFFFFFFFFFFFFFFFFFF AND DUP2 MSTORE PUSH1 0x20 ADD SWAP1 DUP2 MSTORE PUSH1 0x20 ADD PUSH0 KECCAK256 DUP2 SWAP1 SSTORE POP JUMP JUMPDEST PUSH1 0x1 DUP2 DUP2 SLOAD DUP2 LT PUSH2 0x4BD JUMPI PUSH0 DUP1 REVERT JUMPDEST SWAP1 PUSH0 MSTORE PUSH1 0x20 PUSH0 KECCAK256 ADD PUSH0 SWAP2 POP SLOAD SWAP1 PUSH2 0x100 EXP SWAP1 DIV PUSH20 0xFFFFFFFFFFFFFFFFFFFFFFFFFFFFFFFFFFFFFFFF AND DUP2 JUMP JUMPDEST PUSH0 PUSH0 PUSH2 0x4F3 PUSH2 0x521 JUMP JUMPDEST SWAP1 POP PUSH0 PUSH8 0xDE0B6B3A7640000 DUP5 DUP4 PUSH2 0x50B SWAP2 SWAP1 PUSH2 0x9AF JUMP JUMPDEST PUSH2 0x515 SWAP2 SWAP1 PUSH2 0xA1D JUMP JUMPDEST SWAP1 POP DUP1 SWAP3 POP POP POP SWAP2 SWAP1 POP JUMP JUMPDEST PUSH0 PUSH0 PUSH20 0x694AA1769357215DE4FAC081BF1F309ADC325306 SWAP1 POP PUSH0 DUP2 PUSH20 0xFFFFFFFFFFFFFFFFFFFFFFFFFFFFFFFFFFFFFFFF AND PUSH4 0xFEAF968C PUSH1 0x40 MLOAD DUP2 PUSH4 0xFFFFFFFF AND PUSH1 0xE0 SHL DUP2 MSTORE PUSH1 0x4 ADD PUSH1 0xA0 PUSH1 0x40 MLOAD DUP1 DUP4 SUB DUP2 DUP7 GAS STATICCALL ISZERO DUP1 ISZERO PUSH2 0x584 JUMPI RETURNDATASIZE PUSH0 PUSH0 RETURNDATACOPY RETURNDATASIZE PUSH0 REVERT JUMPDEST POP POP POP POP PUSH1 0x40 MLOAD RETURNDATASIZE PUSH1 0x1F NOT PUSH1 0x1F DUP3 ADD AND DUP3 ADD DUP1 PUSH1 0x40 MSTORE POP DUP2 ADD SWAP1 PUSH2 0x5A8 SWAP2 SWAP1 PUSH2 0xAD3 JUMP JUMPDEST POP POP POP SWAP2 POP POP PUSH5 0x2540BE400 DUP2 PUSH2 0x5BF SWAP2 SWAP1 PUSH2 0xB4A JUMP JUMPDEST SWAP3 POP POP POP SWAP1 JUMP JUMPDEST DUP3 DUP1 SLOAD DUP3 DUP3 SSTORE SWAP1 PUSH0 MSTORE PUSH1 0x20 PUSH0 KECCAK256 SWAP1 DUP2 ADD SWAP3 DUP3 ISZERO PUSH2 0x63C JUMPI SWAP2 PUSH1 0x20 MUL DUP3 ADD JUMPDEST DUP3 DUP2 GT ISZERO PUSH2 0x63B JUMPI DUP3 MLOAD DUP3 PUSH0 PUSH2 0x100 EXP DUP2 SLOAD DUP2 PUSH20 0xFFFFFFFFFFFFFFFFFFFFFFFFFFFFFFFFFFFFFFFF MUL NOT AND SWAP1 DUP4 PUSH20 0xFFFFFFFFFFFFFFFFFFFFFFFFFFFFFFFFFFFFFFFF AND MUL OR SWAP1 SSTORE POP SWAP2 PUSH1 0x20 ADD SWAP2 SWAP1 PUSH1 0x1 ADD SWAP1 PUSH2 0x5E4 JUMP JUMPDEST JUMPDEST POP SWAP1 POP PUSH2 0x649 SWAP2 SWAP1 PUSH2 0x64D JUMP JUMPDEST POP SWAP1 JUMP JUMPDEST JUMPDEST DUP1 DUP3 GT ISZERO PUSH2 0x664 JUMPI PUSH0 DUP2 PUSH0 SWAP1 SSTORE POP PUSH1 0x1 ADD PUSH2 0x64E JUMP JUMPDEST POP SWAP1 JUMP JUMPDEST PUSH0 DUP2 SWAP1 POP SWAP2 SWAP1 POP JUMP JUMPDEST PUSH2 0x67A DUP2 PUSH2 0x668 JUMP JUMPDEST DUP3 MSTORE POP POP JUMP JUMPDEST PUSH0 PUSH1 0x20 DUP3 ADD SWAP1 POP PUSH2 0x693 PUSH0 DUP4 ADD DUP5 PUSH2 0x671 JUMP JUMPDEST SWAP3 SWAP2 POP POP JUMP JUMPDEST PUSH0 PUSH0 REVERT JUMPDEST PUSH0 PUSH20 0xFFFFFFFFFFFFFFFFFFFFFFFFFFFFFFFFFFFFFFFF DUP3 AND SWAP1 POP SWAP2 SWAP1 POP JUMP JUMPDEST PUSH0 PUSH2 0x6C6 DUP3 PUSH2 0x69D JUMP JUMPDEST SWAP1 POP SWAP2 SWAP1 POP JUMP JUMPDEST PUSH2 0x6D6 DUP2 PUSH2 0x6BC JUMP JUMPDEST DUP2 EQ PUSH2 0x6E0 JUMPI PUSH0 PUSH0 REVERT JUMPDEST POP JUMP JUMPDEST PUSH0 DUP2 CALLDATALOAD SWAP1 POP PUSH2 0x6F1 DUP2 PUSH2 0x6CD JUMP JUMPDEST SWAP3 SWAP2 POP POP JUMP JUMPDEST PUSH0 PUSH1 0x20 DUP3 DUP5 SUB SLT ISZERO PUSH2 0x70C JUMPI PUSH2 0x70B PUSH2 0x699 JUMP JUMPDEST JUMPDEST PUSH0 PUSH2 0x719 DUP5 DUP3 DUP6 ADD PUSH2 0x6E3 JUMP JUMPDEST SWAP2 POP POP SWAP3 SWAP2 POP POP JUMP JUMPDEST PUSH2 0x72B DUP2 PUSH2 0x6BC JUMP JUMPDEST DUP3 MSTORE POP POP JUMP JUMPDEST PUSH0 PUSH1 0x20 DUP3 ADD SWAP1 POP PUSH2 0x744 PUSH0 DUP4 ADD DUP5 PUSH2 0x722 JUMP JUMPDEST SWAP3 SWAP2 POP POP JUMP JUMPDEST PUSH2 0x753 DUP2 PUSH2 0x668 JUMP JUMPDEST DUP2 EQ PUSH2 0x75D JUMPI PUSH0 PUSH0 REVERT JUMPDEST POP JUMP JUMPDEST PUSH0 DUP2 CALLDATALOAD SWAP1 POP PUSH2 0x76E DUP2 PUSH2 0x74A JUMP JUMPDEST SWAP3 SWAP2 POP POP JUMP JUMPDEST PUSH0 PUSH1 0x20 DUP3 DUP5 SUB SLT ISZERO PUSH2 0x789 JUMPI PUSH2 0x788 PUSH2 0x699 JUMP JUMPDEST JUMPDEST PUSH0 PUSH2 0x796 DUP5 DUP3 DUP6 ADD PUSH2 0x760 JUMP JUMPDEST SWAP2 POP POP SWAP3 SWAP2 POP POP JUMP JUMPDEST PUSH0 DUP3 DUP3 MSTORE PUSH1 0x20 DUP3 ADD SWAP1 POP SWAP3 SWAP2 POP POP JUMP JUMPDEST PUSH32 0x53656E646572206973206E6F74206F776E657221210000000000000000000000 PUSH0 DUP3 ADD MSTORE POP JUMP JUMPDEST PUSH0 PUSH2 0x7E3 PUSH1 0x15 DUP4 PUSH2 0x79F JUMP JUMPDEST SWAP2 POP PUSH2 0x7EE DUP3 PUSH2 0x7AF JUMP JUMPDEST PUSH1 0x20 DUP3 ADD SWAP1 POP SWAP2 SWAP1 POP JUMP JUMPDEST PUSH0 PUSH1 0x20 DUP3 ADD SWAP1 POP DUP2 DUP2 SUB PUSH0 DUP4 ADD MSTORE PUSH2 0x810 DUP2 PUSH2 0x7D7 JUMP JUMPDEST SWAP1 POP SWAP2 SWAP1 POP JUMP JUMPDEST PUSH32 0x4E487B7100000000000000000000000000000000000000000000000000000000 PUSH0 MSTORE PUSH1 0x32 PUSH1 0x4 MSTORE PUSH1 0x24 PUSH0 REVERT JUMPDEST PUSH32 0x4E487B7100000000000000000000000000000000000000000000000000000000 PUSH0 MSTORE PUSH1 0x41 PUSH1 0x4 MSTORE PUSH1 0x24 PUSH0 REVERT JUMPDEST PUSH0 DUP2 SWAP1 POP SWAP3 SWAP2 POP POP JUMP JUMPDEST POP JUMP JUMPDEST PUSH0 PUSH2 0x889 PUSH0 DUP4 PUSH2 0x871 JUMP JUMPDEST SWAP2 POP PUSH2 0x894 DUP3 PUSH2 0x87B JUMP JUMPDEST PUSH0 DUP3 ADD SWAP1 POP SWAP2 SWAP1 POP JUMP JUMPDEST PUSH0 PUSH2 0x8A8 DUP3 PUSH2 0x87E JUMP JUMPDEST SWAP2 POP DUP2 SWAP1 POP SWAP2 SWAP1 POP JUMP JUMPDEST PUSH32 0x43616C6C206661696C6564203A28000000000000000000000000000000000000 PUSH0 DUP3 ADD MSTORE POP JUMP JUMPDEST PUSH0 PUSH2 0x8E6 PUSH1 0xE DUP4 PUSH2 0x79F JUMP JUMPDEST SWAP2 POP PUSH2 0x8F1 DUP3 PUSH2 0x8B2 JUMP JUMPDEST PUSH1 0x20 DUP3 ADD SWAP1 POP SWAP2 SWAP1 POP JUMP JUMPDEST PUSH0 PUSH1 0x20 DUP3 ADD SWAP1 POP DUP2 DUP2 SUB PUSH0 DUP4 ADD MSTORE PUSH2 0x913 DUP2 PUSH2 0x8DA JUMP JUMPDEST SWAP1 POP SWAP2 SWAP1 POP JUMP JUMPDEST PUSH32 0x4469646E27742073656E6420656E6F756768206574686572203A280000000000 PUSH0 DUP3 ADD MSTORE POP JUMP JUMPDEST PUSH0 PUSH2 0x94E PUSH1 0x1B DUP4 PUSH2 0x79F JUMP JUMPDEST SWAP2 POP PUSH2 0x959 DUP3 PUSH2 0x91A JUMP JUMPDEST PUSH1 0x20 DUP3 ADD SWAP1 POP SWAP2 SWAP1 POP JUMP JUMPDEST PUSH0 PUSH1 0x20 DUP3 ADD SWAP1 POP DUP2 DUP2 SUB PUSH0 DUP4 ADD MSTORE PUSH2 0x97B DUP2 PUSH2 0x942 JUMP JUMPDEST SWAP1 POP SWAP2 SWAP1 POP JUMP JUMPDEST PUSH32 0x4E487B7100000000000000000000000000000000000000000000000000000000 PUSH0 MSTORE PUSH1 0x11 PUSH1 0x4 MSTORE PUSH1 0x24 PUSH0 REVERT JUMPDEST PUSH0 PUSH2 0x9B9 DUP3 PUSH2 0x668 JUMP JUMPDEST SWAP2 POP PUSH2 0x9C4 DUP4 PUSH2 0x668 JUMP JUMPDEST SWAP3 POP DUP3 DUP3 MUL PUSH2 0x9D2 DUP2 PUSH2 0x668 JUMP JUMPDEST SWAP2 POP DUP3 DUP3 DIV DUP5 EQ DUP4 ISZERO OR PUSH2 0x9E9 JUMPI PUSH2 0x9E8 PUSH2 0x982 JUMP JUMPDEST JUMPDEST POP SWAP3 SWAP2 POP POP JUMP JUMPDEST PUSH32 0x4E487B7100000000000000000000000000000000000000000000000000000000 PUSH0 MSTORE PUSH1 0x12 PUSH1 0x4 MSTORE PUSH1 0x24 PUSH0 REVERT JUMPDEST PUSH0 PUSH2 0xA27 DUP3 PUSH2 0x668 JUMP JUMPDEST SWAP2 POP PUSH2 0xA32 DUP4 PUSH2 0x668 JUMP JUMPDEST SWAP3 POP DUP3 PUSH2 0xA42 JUMPI PUSH2 0xA41 PUSH2 0x9F0 JUMP JUMPDEST JUMPDEST DUP3 DUP3 DIV SWAP1 POP SWAP3 SWAP2 POP POP JUMP JUMPDEST PUSH0 PUSH10 0xFFFFFFFFFFFFFFFFFFFF DUP3 AND SWAP1 POP SWAP2 SWAP1 POP JUMP JUMPDEST PUSH2 0xA6B DUP2 PUSH2 0xA4D JUMP JUMPDEST DUP2 EQ PUSH2 0xA75 JUMPI PUSH0 PUSH0 REVERT JUMPDEST POP JUMP JUMPDEST PUSH0 DUP2 MLOAD SWAP1 POP PUSH2 0xA86 DUP2 PUSH2 0xA62 JUMP JUMPDEST SWAP3 SWAP2 POP POP JUMP JUMPDEST PUSH0 DUP2 SWAP1 POP SWAP2 SWAP1 POP JUMP JUMPDEST PUSH2 0xA9E DUP2 PUSH2 0xA8C JUMP JUMPDEST DUP2 EQ PUSH2 0xAA8 JUMPI PUSH0 PUSH0 REVERT JUMPDEST POP JUMP JUMPDEST PUSH0 DUP2 MLOAD SWAP1 POP PUSH2 0xAB9 DUP2 PUSH2 0xA95 JUMP JUMPDEST SWAP3 SWAP2 POP POP JUMP JUMPDEST PUSH0 DUP2 MLOAD SWAP1 POP PUSH2 0xACD DUP2 PUSH2 0x74A JUMP JUMPDEST SWAP3 SWAP2 POP POP JUMP JUMPDEST PUSH0 PUSH0 PUSH0 PUSH0 PUSH0 PUSH1 0xA0 DUP7 DUP9 SUB SLT ISZERO PUSH2 0xAEC JUMPI PUSH2 0xAEB PUSH2 0x699 JUMP JUMPDEST JUMPDEST PUSH0 PUSH2 0xAF9 DUP9 DUP3 DUP10 ADD PUSH2 0xA78 JUMP JUMPDEST SWAP6 POP POP PUSH1 0x20 PUSH2 0xB0A DUP9 DUP3 DUP10 ADD PUSH2 0xAAB JUMP JUMPDEST SWAP5 POP POP PUSH1 0x40 PUSH2 0xB1B DUP9 DUP3 DUP10 ADD PUSH2 0xABF JUMP JUMPDEST SWAP4 POP POP PUSH1 0x60 PUSH2 0xB2C DUP9 DUP3 DUP10 ADD PUSH2 0xABF JUMP JUMPDEST SWAP3 POP POP PUSH1 0x80 PUSH2 0xB3D DUP9 DUP3 DUP10 ADD PUSH2 0xA78 JUMP JUMPDEST SWAP2 POP POP SWAP3 SWAP6 POP SWAP3 SWAP6 SWAP1 SWAP4 POP JUMP JUMPDEST PUSH0 PUSH2 0xB54 DUP3 PUSH2 0xA8C JUMP JUMPDEST SWAP2 POP PUSH2 0xB5F DUP4 PUSH2 0xA8C JUMP JUMPDEST SWAP3 POP DUP3 DUP3 MUL PUSH2 0xB6D DUP2 PUSH2 0xA8C JUMP JUMPDEST SWAP2 POP PUSH32 0x8000000000000000000000000000000000000000000000000000000000000000 DUP5 EQ PUSH0 DUP5 SLT AND ISZERO PUSH2 0xBA4 JUMPI PUSH2 0xBA3 PUSH2 0x982 JUMP JUMPDEST JUMPDEST DUP3 DUP3 SDIV DUP5 EQ DUP4 ISZERO OR PUSH2 0xBB9 JUMPI PUSH2 0xBB8 PUSH2 0x982 JUMP JUMPDEST JUMPDEST POP SWAP3 SWAP2 POP POP JUMP INVALID LOG2 PUSH5 0x6970667358 0x22 SLT KECCAK256 JUMPDEST PUSH15 0xCD7500651E2634F8A9491D58416AF9 SLT PUSH10 0x8B9FB1E3D8CEE9C2B1F3 0xE4 EXTCODECOPY MSIZE PUSH5 0x736F6C6343 STOP ADDMOD SHL STOP CALLER "
				},
				"gasEstimates": {
					"creation": {
						"codeDepositCost": "612400",
						"executionCost": "47013",
						"totalCost": "659413"
					},
					"external": {
						"addressToAmountFunded(address)": "2824",
						"fund()": "infinite",
						"funders(uint256)": "5032",
						"minimumUsd()": "2402",
						"owner()": "2552",
						"withdraw()": "infinite"
					}
				},
				"methodIdentifiers": {
					"addressToAmountFunded(address)": "3e47d6f3",
					"fund()": "b60d4288",
					"funders(uint256)": "dc0d3dff",
					"minimumUsd()": "098de820",
					"owner()": "8da5cb5b",
					"withdraw()": "3ccfd60b"
				}
			},
			"storageLayout": {
				"storage": [
					{
						"astId": 56,
						"contract": "Fund Me/FundMe.sol:FundMe",
						"label": "minimumUsd",
						"offset": 0,
						"slot": "0",
						"type": "t_uint256"
					},
					{
						"astId": 59,
						"contract": "Fund Me/FundMe.sol:FundMe",
						"label": "funders",
						"offset": 0,
						"slot": "1",
						"type": "t_array(t_address)dyn_storage"
					},
					{
						"astId": 63,
						"contract": "Fund Me/FundMe.sol:FundMe",
						"label": "addressToAmountFunded",
						"offset": 0,
						"slot": "2",
						"type": "t_mapping(t_address,t_uint256)"
					},
					{
						"astId": 65,
						"contract": "Fund Me/FundMe.sol:FundMe",
						"label": "owner",
						"offset": 0,
						"slot": "3",
						"type": "t_address"
					}
				],
				"types": {
					"t_address": {
						"encoding": "inplace",
						"label": "address",
						"numberOfBytes": "20"
					},
					"t_array(t_address)dyn_storage": {
						"base": "t_address",
						"encoding": "dynamic_array",
						"label": "address[]",
						"numberOfBytes": "32"
					},
					"t_mapping(t_address,t_uint256)": {
						"encoding": "mapping",
						"key": "t_address",
						"label": "mapping(address => uint256)",
						"numberOfBytes": "32",
						"value": "t_uint256"
					},
					"t_uint256": {
						"encoding": "inplace",
						"label": "uint256",
						"numberOfBytes": "32"
					}
				}
			},
			"userdoc": {
				"kind": "user",
				"methods": {},
				"version": 1
			}
		}
	}
}